{
  "_format": "hh-sol-artifact-1",
  "contractName": "Optino",
  "sourceName": "contracts/Optino.sol",
  "abi": [
    {
      "inputs": [
        {
          "internalType": "address",
          "name": "_usdc",
          "type": "address"
        },
        {
          "internalType": "address",
          "name": "option_price_oracle",
          "type": "address"
        }
      ],
      "stateMutability": "nonpayable",
      "type": "constructor"
    },
    {
      "anonymous": false,
      "inputs": [
        {
          "indexed": true,
          "internalType": "address",
          "name": "account",
          "type": "address"
        },
        {
          "indexed": true,
          "internalType": "uint256",
          "name": "tokenId",
          "type": "uint256"
        }
      ],
      "name": "OptionPurchased",
      "type": "event"
    },
    {
      "anonymous": false,
      "inputs": [
        {
          "indexed": false,
          "internalType": "uint256",
          "name": "tokenId",
          "type": "uint256"
        },
        {
          "indexed": true,
          "internalType": "bool",
          "name": "expiredITM",
          "type": "bool"
        }
      ],
      "name": "OptionResolved",
      "type": "event"
    },
    {
      "anonymous": false,
      "inputs": [
        {
          "indexed": true,
          "internalType": "address",
          "name": "previousOwner",
          "type": "address"
        },
        {
          "indexed": true,
          "internalType": "address",
          "name": "newOwner",
          "type": "address"
        }
      ],
      "name": "OwnershipTransferred",
      "type": "event"
    },
    {
      "inputs": [],
      "name": "LPEquity",
      "outputs": [
        {
          "internalType": "uint256",
          "name": "",
          "type": "uint256"
        }
      ],
      "stateMutability": "view",
      "type": "function"
    },
    {
      "inputs": [],
      "name": "LPShares",
      "outputs": [
        {
          "internalType": "contract OptinoLPShares",
          "name": "",
          "type": "address"
        }
      ],
      "stateMutability": "view",
      "type": "function"
    },
    {
      "inputs": [],
      "name": "LPValueOfCalls",
      "outputs": [
        {
          "internalType": "uint256",
          "name": "",
          "type": "uint256"
        }
      ],
      "stateMutability": "view",
      "type": "function"
    },
    {
      "inputs": [],
      "name": "LPValueOfOptions",
      "outputs": [
        {
          "internalType": "uint256",
          "name": "",
          "type": "uint256"
        }
      ],
      "stateMutability": "view",
      "type": "function"
    },
    {
      "inputs": [],
      "name": "LPValueOfPuts",
      "outputs": [
        {
          "internalType": "uint256",
          "name": "",
          "type": "uint256"
        }
      ],
      "stateMutability": "view",
      "type": "function"
    },
    {
      "inputs": [],
      "name": "OptionCollection",
      "outputs": [
        {
          "internalType": "contract OptionContract",
          "name": "",
          "type": "address"
        }
      ],
      "stateMutability": "view",
      "type": "function"
    },
    {
      "inputs": [],
      "name": "USDC",
      "outputs": [
        {
          "internalType": "contract ERC20",
          "name": "",
          "type": "address"
        }
      ],
      "stateMutability": "view",
      "type": "function"
    },
    {
      "inputs": [],
      "name": "allExpiredOptionsResolved",
      "outputs": [
        {
          "internalType": "bool",
          "name": "",
          "type": "bool"
        }
      ],
      "stateMutability": "view",
      "type": "function"
    },
    {
      "inputs": [
        {
          "internalType": "uint256",
          "name": "expiry",
          "type": "uint256"
        },
        {
          "internalType": "uint256",
          "name": "strike",
          "type": "uint256"
        },
        {
          "internalType": "uint256",
          "name": "amount",
          "type": "uint256"
        },
        {
          "internalType": "bool",
          "name": "isCall",
          "type": "bool"
        }
      ],
      "name": "buyOption",
      "outputs": [],
      "stateMutability": "nonpayable",
      "type": "function"
    },
    {
      "inputs": [
        {
          "internalType": "uint256",
          "name": "",
          "type": "uint256"
        }
      ],
      "name": "calls",
      "outputs": [
        {
          "internalType": "uint256",
          "name": "expiry",
          "type": "uint256"
        },
        {
          "internalType": "uint256",
          "name": "one_delta",
          "type": "uint256"
        },
        {
          "internalType": "uint256",
          "name": "ten_delta",
          "type": "uint256"
        },
        {
          "internalType": "uint256",
          "name": "twenty_five_delta",
          "type": "uint256"
        },
        {
          "internalType": "uint256",
          "name": "fifty_delta",
          "type": "uint256"
        }
      ],
      "stateMutability": "view",
      "type": "function"
    },
    {
      "inputs": [],
      "name": "currentEpoch",
      "outputs": [
        {
          "internalType": "uint256",
          "name": "startTime",
          "type": "uint256"
        },
        {
          "internalType": "uint256",
          "name": "endTime",
          "type": "uint256"
        },
        {
          "internalType": "bool",
          "name": "isResolved",
          "type": "bool"
        },
        {
          "internalType": "uint256",
          "name": "referencePrice",
          "type": "uint256"
        }
      ],
      "stateMutability": "view",
      "type": "function"
    },
    {
      "inputs": [],
      "name": "endEpoch",
      "outputs": [],
      "stateMutability": "nonpayable",
      "type": "function"
    },
    {
      "inputs": [
        {
          "internalType": "uint256",
          "name": "",
          "type": "uint256"
        }
      ],
      "name": "epochDistributionPerShare",
      "outputs": [
        {
          "internalType": "uint256",
          "name": "",
          "type": "uint256"
        }
      ],
      "stateMutability": "view",
      "type": "function"
    },
    {
      "inputs": [
        {
          "internalType": "uint256[]",
          "name": "ids",
          "type": "uint256[]"
        },
        {
          "internalType": "uint256[]",
          "name": "amounts",
          "type": "uint256[]"
        }
      ],
      "name": "exerciseBatch",
      "outputs": [],
      "stateMutability": "nonpayable",
      "type": "function"
    },
    {
      "inputs": [
        {
          "internalType": "uint256",
          "name": "tokenId",
          "type": "uint256"
        },
        {
          "internalType": "uint256",
          "name": "amount",
          "type": "uint256"
        }
      ],
      "name": "exerciseOption",
      "outputs": [],
      "stateMutability": "nonpayable",
      "type": "function"
    },
    {
      "inputs": [
        {
          "internalType": "uint256",
          "name": "expiry",
          "type": "uint256"
        },
        {
          "internalType": "bool",
          "name": "isCall",
          "type": "bool"
        }
      ],
      "name": "expiryIsInEpoch",
      "outputs": [
        {
          "internalType": "bool",
          "name": "",
          "type": "bool"
        }
      ],
      "stateMutability": "view",
      "type": "function"
    },
    {
      "inputs": [
        {
          "internalType": "uint256",
          "name": "",
          "type": "uint256"
        }
      ],
      "name": "expiryIsResolved",
      "outputs": [
        {
          "internalType": "bool",
          "name": "",
          "type": "bool"
        }
      ],
      "stateMutability": "view",
      "type": "function"
    },
    {
      "inputs": [
        {
          "internalType": "bool",
          "name": "isCall",
          "type": "bool"
        },
        {
          "internalType": "uint256",
          "name": "expiry",
          "type": "uint256"
        },
        {
          "internalType": "uint256",
          "name": "delta",
          "type": "uint256"
        }
      ],
      "name": "getDelta",
      "outputs": [
        {
          "internalType": "uint256",
          "name": "",
          "type": "uint256"
        }
      ],
      "stateMutability": "view",
      "type": "function"
    },
    {
      "inputs": [
        {
          "internalType": "uint256",
          "name": "expiry",
          "type": "uint256"
        },
        {
          "internalType": "uint256",
          "name": "strike",
          "type": "uint256"
        },
        {
          "internalType": "bool",
          "name": "isCall",
          "type": "bool"
        }
      ],
      "name": "getPrice",
      "outputs": [
        {
          "internalType": "uint256",
          "name": "",
          "type": "uint256"
        }
      ],
      "stateMutability": "view",
      "type": "function"
    },
    {
      "inputs": [
        {
          "internalType": "uint256",
          "name": "strike",
          "type": "uint256"
        },
        {
          "internalType": "uint256",
          "name": "priceAtExpiry",
          "type": "uint256"
        },
        {
          "internalType": "bool",
          "name": "isCall",
          "type": "bool"
        }
      ],
      "name": "isITM",
      "outputs": [
        {
          "internalType": "bool",
          "name": "",
          "type": "bool"
        }
      ],
      "stateMutability": "pure",
      "type": "function"
    },
    {
      "inputs": [
        {
          "internalType": "uint256",
          "name": "strike",
          "type": "uint256"
        },
        {
          "internalType": "uint256",
          "name": "expiry",
          "type": "uint256"
        },
        {
          "internalType": "bool",
          "name": "isCall",
          "type": "bool"
        }
      ],
      "name": "isOptionValidInEpoch",
      "outputs": [
        {
          "internalType": "bool",
          "name": "",
          "type": "bool"
        }
      ],
      "stateMutability": "view",
      "type": "function"
    },
    {
      "inputs": [],
      "name": "isSuspended",
      "outputs": [
        {
          "internalType": "bool",
          "name": "",
          "type": "bool"
        }
      ],
      "stateMutability": "view",
      "type": "function"
    },
    {
      "inputs": [
        {
          "internalType": "address",
          "name": "account",
          "type": "address"
        }
      ],
      "name": "isWithdrawPending",
      "outputs": [
        {
          "internalType": "bool",
          "name": "",
          "type": "bool"
        }
      ],
      "stateMutability": "view",
      "type": "function"
    },
    {
      "inputs": [],
      "name": "liquidityAvailable",
      "outputs": [
        {
          "internalType": "uint256",
          "name": "",
          "type": "uint256"
        }
      ],
      "stateMutability": "view",
      "type": "function"
    },
    {
      "inputs": [
        {
          "internalType": "uint256",
          "name": "amount",
          "type": "uint256"
        }
      ],
      "name": "liquidityDeposit",
      "outputs": [],
      "stateMutability": "nonpayable",
      "type": "function"
    },
    {
      "inputs": [
        {
          "internalType": "uint256",
          "name": "expiry",
          "type": "uint256"
        },
        {
          "internalType": "uint256",
          "name": "strike",
          "type": "uint256"
        },
        {
          "internalType": "bool",
          "name": "isCall",
          "type": "bool"
        }
      ],
      "name": "maxContractsAvailable",
      "outputs": [
        {
          "internalType": "uint256",
          "name": "",
          "type": "uint256"
        }
      ],
      "stateMutability": "view",
      "type": "function"
    },
    {
      "inputs": [
        {
          "internalType": "uint256",
          "name": "expiry",
          "type": "uint256"
        },
        {
          "internalType": "uint256",
          "name": "strike",
          "type": "uint256"
        },
        {
          "internalType": "bool",
          "name": "isCall",
          "type": "bool"
        }
      ],
      "name": "navByStrike",
      "outputs": [
        {
          "internalType": "uint256",
          "name": "",
          "type": "uint256"
        }
      ],
      "stateMutability": "view",
      "type": "function"
    },
    {
      "inputs": [
        {
          "internalType": "uint256",
          "name": "",
          "type": "uint256"
        }
      ],
      "name": "optionExpiredITM",
      "outputs": [
        {
          "internalType": "bool",
          "name": "",
          "type": "bool"
        }
      ],
      "stateMutability": "view",
      "type": "function"
    },
    {
      "inputs": [],
      "name": "oracle",
      "outputs": [
        {
          "internalType": "contract OptionPrice",
          "name": "",
          "type": "address"
        }
      ],
      "stateMutability": "view",
      "type": "function"
    },
    {
      "inputs": [],
      "name": "owner",
      "outputs": [
        {
          "internalType": "address",
          "name": "",
          "type": "address"
        }
      ],
      "stateMutability": "view",
      "type": "function"
    },
    {
      "inputs": [],
      "name": "poolCollateral",
      "outputs": [
        {
          "internalType": "uint256",
          "name": "",
          "type": "uint256"
        }
      ],
      "stateMutability": "view",
      "type": "function"
    },
    {
      "inputs": [
        {
          "internalType": "uint256",
          "name": "",
          "type": "uint256"
        }
      ],
      "name": "puts",
      "outputs": [
        {
          "internalType": "uint256",
          "name": "expiry",
          "type": "uint256"
        },
        {
          "internalType": "uint256",
          "name": "one_delta",
          "type": "uint256"
        },
        {
          "internalType": "uint256",
          "name": "ten_delta",
          "type": "uint256"
        },
        {
          "internalType": "uint256",
          "name": "twenty_five_delta",
          "type": "uint256"
        },
        {
          "internalType": "uint256",
          "name": "fifty_delta",
          "type": "uint256"
        }
      ],
      "stateMutability": "view",
      "type": "function"
    },
    {
      "inputs": [],
      "name": "realizedLoss",
      "outputs": [
        {
          "internalType": "uint256",
          "name": "",
          "type": "uint256"
        }
      ],
      "stateMutability": "view",
      "type": "function"
    },
    {
      "inputs": [],
      "name": "renounceOwnership",
      "outputs": [],
      "stateMutability": "nonpayable",
      "type": "function"
    },
    {
      "inputs": [
        {
          "internalType": "uint256",
          "name": "amount",
          "type": "uint256"
        }
      ],
      "name": "requestLiquidityWithdraw",
      "outputs": [],
      "stateMutability": "nonpayable",
      "type": "function"
    },
    {
      "inputs": [
        {
          "internalType": "uint256",
          "name": "expiry",
          "type": "uint256"
        },
        {
          "internalType": "uint256",
          "name": "priceAtExpiry",
          "type": "uint256"
        }
      ],
      "name": "resolveExpiredOptions",
      "outputs": [],
      "stateMutability": "nonpayable",
      "type": "function"
    },
    {
      "inputs": [
        {
          "internalType": "uint256",
          "name": "strike",
          "type": "uint256"
        },
        {
          "internalType": "uint256",
          "name": "expiry",
          "type": "uint256"
        },
        {
          "internalType": "bool",
          "name": "isCall",
          "type": "bool"
        }
      ],
      "name": "strikeIsInEpoch",
      "outputs": [
        {
          "internalType": "bool",
          "name": "",
          "type": "bool"
        }
      ],
      "stateMutability": "view",
      "type": "function"
    },
    {
      "inputs": [],
      "name": "totalUSDCPendingWithdraw",
      "outputs": [
        {
          "internalType": "uint256",
          "name": "",
          "type": "uint256"
        }
      ],
      "stateMutability": "view",
      "type": "function"
    },
    {
      "inputs": [],
      "name": "totalWithdrawRequestedShares",
      "outputs": [
        {
          "internalType": "uint256",
          "name": "",
          "type": "uint256"
        }
      ],
      "stateMutability": "view",
      "type": "function"
    },
    {
      "inputs": [
        {
          "internalType": "address",
          "name": "newOwner",
          "type": "address"
        }
      ],
      "name": "transferOwnership",
      "outputs": [],
      "stateMutability": "nonpayable",
      "type": "function"
    },
    {
      "inputs": [],
      "name": "withdrawLiquidity",
      "outputs": [],
      "stateMutability": "nonpayable",
      "type": "function"
    },
    {
      "inputs": [
        {
          "internalType": "address",
          "name": "",
          "type": "address"
        }
      ],
      "name": "withdrawRequested",
      "outputs": [
        {
          "internalType": "uint256",
          "name": "amount",
          "type": "uint256"
        },
        {
          "internalType": "uint256",
          "name": "epochEndTime",
          "type": "uint256"
        },
        {
          "internalType": "bool",
          "name": "isClaimed",
          "type": "bool"
        }
      ],
      "stateMutability": "view",
      "type": "function"
    }
  ],
  "bytecode": "0x60806040523480156200001157600080fd5b506040516200b7a43803806200b7a4833981810160405281019062000037919062000c1e565b620000576200004b6200023360201b60201c565b6200023b60201b60201c565b80600460006101000a81548173ffffffffffffffffffffffffffffffffffffffff021916908373ffffffffffffffffffffffffffffffffffffffff16021790555081600160006101000a81548173ffffffffffffffffffffffffffffffffffffffff021916908373ffffffffffffffffffffffffffffffffffffffff160217905550604051620000e79062000b98565b604051809103906000f08015801562000104573d6000803e3d6000fd5b50600360006101000a81548173ffffffffffffffffffffffffffffffffffffffff021916908373ffffffffffffffffffffffffffffffffffffffff160217905550604051620001539062000ba6565b604051809103906000f08015801562000170573d6000803e3d6000fd5b50600260006101000a81548173ffffffffffffffffffffffffffffffffffffffff021916908373ffffffffffffffffffffffffffffffffffffffff160217905550604051806080016040528060008152602001600081526020016001151581526020016000815250602c600082015181600001556020820151816001015560408201518160020160006101000a81548160ff021916908315150217905550606082015181600301559050506200022b620002ff60201b60201c565b505062000e59565b600033905090565b60008060009054906101000a900473ffffffffffffffffffffffffffffffffffffffff169050816000806101000a81548173ffffffffffffffffffffffffffffffffffffffff021916908373ffffffffffffffffffffffffffffffffffffffff1602179055508173ffffffffffffffffffffffffffffffffffffffff168173ffffffffffffffffffffffffffffffffffffffff167f8be0079c531659141344cd1fd0a4f28419497f9722a3daafe3b4186f6b6457e060405160405180910390a35050565b602c60020160009054906101000a900460ff1662000354576040517f08c379a00000000000000000000000000000000000000000000000000000000081526004016200034b9062000cc6565b60405180910390fd5b6000429050604051806080016040528082815260200162015180836200037b919062000d21565b8152602001600015158152602001600460009054906101000a900473ffffffffffffffffffffffffffffffffffffffff1673ffffffffffffffffffffffffffffffffffffffff166398d5fdca6040518163ffffffff1660e01b8152600401602060405180830381865afa158015620003f7573d6000803e3d6000fd5b505050506040513d601f19601f820116820180604052508101906200041d919062000d8d565b815250602c600082015181600001556020820151816001015560408201518160020160006101000a81548160ff021916908315150217905550606082015181600301559050506040518060a00160405280615460836200047e919062000d21565b8152602001620004a760016154608562000499919062000d21565b600a62000ae860201b60201c565b8152602001620004d0600161546085620004c2919062000d21565b606462000ae860201b60201c565b8152602001620004f9600161546085620004eb919062000d21565b60fa62000ae860201b60201c565b81526020016200052360016154608562000514919062000d21565b6101f462000ae860201b60201c565b81525060056000600381106200053e576200053d62000dbf565b5b6005020160008201518160000155602082015181600101556040820151816002015560608201518160030155608082015181600401559050506040518060a0016040528061a8c08362000592919062000d21565b8152602001620005bb600161a8c085620005ad919062000d21565b600a62000ae860201b60201c565b8152602001620005e4600161a8c085620005d6919062000d21565b606462000ae860201b60201c565b81526020016200060d600161a8c085620005ff919062000d21565b60fa62000ae860201b60201c565b815260200162000637600161a8c08562000628919062000d21565b6101f462000ae860201b60201c565b815250600560016003811062000652576200065162000dbf565b5b6005020160008201518160000155602082015181600101556040820151816002015560608201518160030155608082015181600401559050506040518060a001604052806201518083620006a7919062000d21565b8152602001620006d160016201518085620006c3919062000d21565b600a62000ae860201b60201c565b8152602001620006fb60016201518085620006ed919062000d21565b606462000ae860201b60201c565b8152602001620007256001620151808562000717919062000d21565b60fa62000ae860201b60201c565b8152602001620007506001620151808562000741919062000d21565b6101f462000ae860201b60201c565b81525060056002600381106200076b576200076a62000dbf565b5b6005020160008201518160000155602082015181600101556040820151816002015560608201518160030155608082015181600401559050506040518060a0016040528061546083620007bf919062000d21565b8152602001620007e8600061546085620007da919062000d21565b600a62000ae860201b60201c565b81526020016200081160006154608562000803919062000d21565b606462000ae860201b60201c565b81526020016200083a6000615460856200082c919062000d21565b60fa62000ae860201b60201c565b81526020016200086460006154608562000855919062000d21565b6101f462000ae860201b60201c565b81525060146000600381106200087f576200087e62000dbf565b5b6005020160008201518160000155602082015181600101556040820151816002015560608201518160030155608082015181600401559050506040518060a0016040528061a8c083620008d3919062000d21565b8152602001620008fc600061a8c085620008ee919062000d21565b600a62000ae860201b60201c565b815260200162000925600061a8c08562000917919062000d21565b606462000ae860201b60201c565b81526020016200094e600061a8c08562000940919062000d21565b60fa62000ae860201b60201c565b815260200162000978600061a8c08562000969919062000d21565b6101f462000ae860201b60201c565b815250601460016003811062000993576200099262000dbf565b5b6005020160008201518160000155602082015181600101556040820151816002015560608201518160030155608082015181600401559050506040518060a001604052806201518083620009e8919062000d21565b815260200162000a126000620151808562000a04919062000d21565b600a62000ae860201b60201c565b815260200162000a3c6000620151808562000a2e919062000d21565b606462000ae860201b60201c565b815260200162000a666000620151808562000a58919062000d21565b60fa62000ae860201b60201c565b815260200162000a916000620151808562000a82919062000d21565b6101f462000ae860201b60201c565b815250601460026003811062000aac5762000aab62000dbf565b5b60050201600082015181600001556020820151816001015560408201518160020155606082015181600301556080820151816004015590505050565b6000600460009054906101000a900473ffffffffffffffffffffffffffffffffffffffff1673ffffffffffffffffffffffffffffffffffffffff166373dc05198585856040518463ffffffff1660e01b815260040162000b4b9392919062000e1c565b602060405180830381865afa15801562000b69573d6000803e3d6000fd5b505050506040513d601f19601f8201168201806040525081019062000b8f919062000d8d565b90509392505050565b6120d7806200573783390190565b613f96806200780e83390190565b600080fd5b600073ffffffffffffffffffffffffffffffffffffffff82169050919050565b600062000be68262000bb9565b9050919050565b62000bf88162000bd9565b811462000c0457600080fd5b50565b60008151905062000c188162000bed565b92915050565b6000806040838503121562000c385762000c3762000bb4565b5b600062000c488582860162000c07565b925050602062000c5b8582860162000c07565b9150509250929050565b600082825260208201905092915050565b7f43757272656e7445706f6368206e6f74207265736f6c76656400000000000000600082015250565b600062000cae60198362000c65565b915062000cbb8262000c76565b602082019050919050565b6000602082019050818103600083015262000ce18162000c9f565b9050919050565b6000819050919050565b7f4e487b7100000000000000000000000000000000000000000000000000000000600052601160045260246000fd5b600062000d2e8262000ce8565b915062000d3b8362000ce8565b925082820190508082111562000d565762000d5562000cf2565b5b92915050565b62000d678162000ce8565b811462000d7357600080fd5b50565b60008151905062000d878162000d5c565b92915050565b60006020828403121562000da65762000da562000bb4565b5b600062000db68482850162000d76565b91505092915050565b7f4e487b7100000000000000000000000000000000000000000000000000000000600052603260045260246000fd5b60008115159050919050565b62000e058162000dee565b82525050565b62000e168162000ce8565b82525050565b600060608201905062000e33600083018662000dfa565b62000e42602083018562000e0b565b62000e51604083018462000e0b565b949350505050565b6148ce8062000e696000396000f3fe608060405234801561001057600080fd5b506004361061025e5760003560e01c80637c9c671211610146578063c55636f9116100c3578063f11674e911610087578063f11674e91461074c578063f2fde38b14610768578063f7e5b8ca14610784578063f8fd56f4146107b4578063fb763c99146107d2578063fc988343146107f05761025e565b8063c55636f91461067e578063d183ce141461069a578063d2beccf1146106ce578063d62eb5d1146106fe578063e43da232146107305761025e565b80638da5cb5b1161010a5780638da5cb5b146105c45780639c030bbf146105e25780639ecda3f214610612578063a28a5dd714610642578063b126dff8146106605761025e565b80637c9c6712146105325780637dc0d1d01461054e5780637ea382c11461056c57806389a30271146105765780638b94f46d146105945761025e565b80633efb13ef116101df578063629bc21f116101a3578063629bc21f146104675780636dd66ea814610485578063715018a6146104b557806371ba8a32146104bf57806372c656b4146104f357806376671808146105115761025e565b80633efb13ef1461039d5780633ff5add7146103bb5780635ae0d7f5146103eb5780635b9598ee146104075780635c78cb82146104375761025e565b80631d130935116102265780631d130935146102e557806332a6a2f71461030357806332ab8d591461032157806338fe338a14610351578063391a963c1461036d5761025e565b80630303d1aa146102635780630b9663db146102815780630ec2eada1461028b57806310c4779e146102a9578063164e5493146102c7575b600080fd5b61026b610820565b6040516102789190613558565b60405180910390f35b610289610826565b005b610293610a04565b6040516102a09190613558565b60405180910390f35b6102b1610b65565b6040516102be9190613558565b60405180910390f35b6102cf610cc6565b6040516102dc9190613558565b60405180910390f35b6102ed610ccc565b6040516102fa919061358e565b60405180910390f35b61030b610d5f565b6040516103189190613558565b60405180910390f35b61033b60048036038101906103369190613615565b610d65565b6040516103489190613558565b60405180910390f35b61036b60048036038101906103669190613668565b610da0565b005b610387600480360381019061038291906136cf565b611159565b604051610394919061358e565b60405180910390f35b6103a561120d565b6040516103b2919061358e565b60405180910390f35b6103d560048036038101906103d0919061376d565b611280565b6040516103e2919061358e565b60405180910390f35b6104056004803603810190610400919061379a565b61138b565b005b610421600480360381019061041c9190613615565b611639565b60405161042e919061358e565b60405180910390f35b610451600480360381019061044c919061379a565b611823565b60405161045e919061358e565b60405180910390f35b61046f611843565b60405161047c9190613558565b60405180910390f35b61049f600480360381019061049a9190613615565b611849565b6040516104ac9190613558565b60405180910390f35b6104bd611a5a565b005b6104d960048036038101906104d4919061379a565b611a6e565b6040516104ea9594939291906137c7565b60405180910390f35b6104fb611aaa565b6040516105089190613558565b60405180910390f35b610519611ab0565b604051610529949392919061381a565b60405180910390f35b61054c6004803603810190610547919061385f565b611adb565b005b610556611cb2565b60405161056391906138fe565b60405180910390f35b610574611cd8565b005b61057e611ff5565b60405161058b919061393a565b60405180910390f35b6105ae60048036038101906105a9919061379a565b61201b565b6040516105bb919061358e565b60405180910390f35b6105cc61203b565b6040516105d99190613964565b60405180910390f35b6105fc60048036038101906105f79190613615565b612064565b604051610609919061358e565b60405180910390f35b61062c60048036038101906106279190613615565b61209d565b604051610639919061358e565b60405180910390f35b61064a6120e2565b60405161065791906139a0565b60405180910390f35b610668612108565b6040516106759190613558565b60405180910390f35b6106986004803603810190610693919061385f565b612129565b005b6106b460048036038101906106af919061379a565b61239d565b6040516106c59594939291906137c7565b60405180910390f35b6106e860048036038101906106e391906139bb565b6123d9565b6040516106f59190613558565b60405180910390f35b6107186004803603810190610713919061376d565b612484565b60405161072793929190613a0e565b60405180910390f35b61074a60048036038101906107459190613b9e565b6124bb565b005b6107666004803603810190610761919061379a565b6126e3565b005b610782600480360381019061077d919061376d565b612890565b005b61079e6004803603810190610799919061379a565b612913565b6040516107ab9190613558565b60405180910390f35b6107bc61292b565b6040516107c99190613558565b60405180910390f35b6107da612947565b6040516107e79190613c37565b60405180910390f35b61080a60048036038101906108059190613615565b61296d565b6040516108179190613558565b60405180910390f35b60295481565b61082e612ae0565b600360009054906101000a900473ffffffffffffffffffffffffffffffffffffffff1673ffffffffffffffffffffffffffffffffffffffff166318160ddd6040518163ffffffff1660e01b8152600401602060405180830381865afa15801561089b573d6000803e3d6000fd5b505050506040513d601f19601f820116820180604052508101906108bf9190613c67565b6108c761292b565b6108d19190613cf2565b60286000602c60010154815260200190815260200160002081905550600060295460286000602c600101548152602001908152602001600020546109159190613d23565b905080602a60008282546109299190613d65565b925050819055508060235461093e9190613d99565b602381905550600360009054906101000a900473ffffffffffffffffffffffffffffffffffffffff1673ffffffffffffffffffffffffffffffffffffffff166342966c686029546040518263ffffffff1660e01b81526004016109a19190613558565b600060405180830381600087803b1580156109bb57600080fd5b505af11580156109cf573d6000803e3d6000fd5b5050505060006029819055506001602c60020160006101000a81548160ff021916908315150217905550610a01612b5e565b50565b6000806000905060005b6003811015610b5d57610a5960148260038110610a2e57610a2d613dcd565b5b600502016000015460148360038110610a4a57610a49613dcd565b5b6005020160040154600061296d565b610a9b60148360038110610a7057610a6f613dcd565b5b600502016000015460148460038110610a8c57610a8b613dcd565b5b6005020160030154600061296d565b610add60148460038110610ab257610ab1613dcd565b5b600502016000015460148560038110610ace57610acd613dcd565b5b6005020160020154600061296d565b610b1f60148560038110610af457610af3613dcd565b5b600502016000015460148660038110610b1057610b0f613dcd565b5b6005020160010154600061296d565b610b299190613d65565b610b339190613d65565b610b3d9190613d65565b82610b489190613d65565b91508080610b5590613dfc565b915050610a0e565b508091505090565b6000806000905060005b6003811015610cbe57610bba60058260038110610b8f57610b8e613dcd565b5b600502016000015460058360038110610bab57610baa613dcd565b5b6005020160040154600161296d565b610bfc60058360038110610bd157610bd0613dcd565b5b600502016000015460058460038110610bed57610bec613dcd565b5b6005020160030154600161296d565b610c3e60058460038110610c1357610c12613dcd565b5b600502016000015460058560038110610c2f57610c2e613dcd565b5b6005020160020154600161296d565b610c8060058560038110610c5557610c54613dcd565b5b600502016000015460058660038110610c7157610c70613dcd565b5b6005020160010154600161296d565b610c8a9190613d65565b610c949190613d65565b610c9e9190613d65565b82610ca99190613d65565b91508080610cb690613dfc565b915050610b6f565b508091505090565b602a5481565b6000805b6003811015610d5a574260058260038110610cee57610ced613dcd565b5b60050201600001541015610d47576027600060058360038110610d1457610d13613dcd565b5b6005020160000154815260200190815260200160002060009054906101000a900460ff16610d46576001915050610d5c565b5b8080610d5290613dfc565b915050610cd0565b505b90565b60245481565b600080610d73858585611849565b670de0b6b3a7640000610d869190613d99565b905080602354610d969190613cf2565b9150509392505050565b610dab838583612064565b610dea576040517f08c379a0000000000000000000000000000000000000000000000000000000008152600401610de190613ea1565b60405180910390fd5b428411610e2c576040517f08c379a0000000000000000000000000000000000000000000000000000000008152600401610e2390613f0d565b60405180910390fd5b610e37848483610d65565b821115610e79576040517f08c379a0000000000000000000000000000000000000000000000000000000008152600401610e7090613f9f565b60405180910390fd5b6000600260009054906101000a900473ffffffffffffffffffffffffffffffffffffffff1673ffffffffffffffffffffffffffffffffffffffff16632d27c4be8686856040518463ffffffff1660e01b8152600401610eda93929190613a0e565b602060405180830381865afa158015610ef7573d6000803e3d6000fd5b505050506040513d601f19601f82011682018060405250810190610f1b9190613c67565b90506000610f2a868685611849565b905060008185610f3a9190613d23565b9050600160009054906101000a900473ffffffffffffffffffffffffffffffffffffffff1673ffffffffffffffffffffffffffffffffffffffff166323b872dd3330846040518463ffffffff1660e01b8152600401610f9b93929190613fbf565b6020604051808303816000875af1158015610fba573d6000803e3d6000fd5b505050506040513d601f19601f82011682018060405250810190610fde919061400b565b61101d576040517f08c379a000000000000000000000000000000000000000000000000000000000815260040161101490614084565b60405180910390fd5b600260009054906101000a900473ffffffffffffffffffffffffffffffffffffffff1673ffffffffffffffffffffffffffffffffffffffff1663156e29f63385886040518463ffffffff1660e01b815260040161107c939291906140a4565b600060405180830381600087803b15801561109657600080fd5b505af11580156110aa573d6000803e3d6000fd5b5050505080670de0b6b3a7640000866110c39190613d23565b6110cd9190613d99565b6023546110da9190613d99565b602381905550670de0b6b3a7640000856110f49190613d23565b602460008282546111059190613d65565b92505081905550823373ffffffffffffffffffffffffffffffffffffffff167ff1124c7ea02bc977414b7d5266df24e5b54a91cab415714b83510a3a276407e860405160405180910390a350505050505050565b600081156111b65760005b60038110156111ac57836005826003811061118257611181613dcd565b5b600502016000015403611199576001915050611207565b80806111a490613dfc565b915050611164565b5060009050611207565b60005b60038110156112015783601482600381106111d7576111d6613dcd565b5b6005020160000154036111ee576001915050611207565b80806111f990613dfc565b9150506111b9565b50600090505b92915050565b6000805b600381101561127757602760006005836003811061123257611231613dcd565b5b6005020160000154815260200190815260200160002060009054906101000a900460ff1661126457600091505061127d565b808061126f90613dfc565b915050611211565b50600190505b90565b6000602b60003373ffffffffffffffffffffffffffffffffffffffff1673ffffffffffffffffffffffffffffffffffffffff16815260200190815260200160002060020160009054906101000a900460ff161580156113255750602c60010154602b60003373ffffffffffffffffffffffffffffffffffffffff1673ffffffffffffffffffffffffffffffffffffffff16815260200190815260200160002060010154105b801561137357506000602b60003373ffffffffffffffffffffffffffffffffffffffff1673ffffffffffffffffffffffffffffffffffffffff16815260200190815260200160002060000154115b156113815760019050611386565b600090505b919050565b611393610ccc565b156113d3576040517f08c379a00000000000000000000000000000000000000000000000000000000081526004016113ca90614127565b60405180910390fd5b60006113dd61292b565b90506000600360009054906101000a900473ffffffffffffffffffffffffffffffffffffffff1673ffffffffffffffffffffffffffffffffffffffff166318160ddd6040518163ffffffff1660e01b8152600401602060405180830381865afa15801561144e573d6000803e3d6000fd5b505050506040513d601f19601f820116820180604052508101906114729190613c67565b905060008111156114a4576000818361148b9190613cf2565b90506000818561149b9190613cf2565b905050506114ab565b6000839050505b600160009054906101000a900473ffffffffffffffffffffffffffffffffffffffff1673ffffffffffffffffffffffffffffffffffffffff166323b872dd3330866040518463ffffffff1660e01b815260040161150a93929190613fbf565b6020604051808303816000875af1158015611529573d6000803e3d6000fd5b505050506040513d601f19601f8201168201806040525081019061154d919061400b565b61158c576040517f08c379a0000000000000000000000000000000000000000000000000000000008152600401611583906141b9565b60405180910390fd5b600360009054906101000a900473ffffffffffffffffffffffffffffffffffffffff1673ffffffffffffffffffffffffffffffffffffffff166340c10f1933856040518363ffffffff1660e01b81526004016115e99291906141d9565b600060405180830381600087803b15801561160357600080fd5b505af1158015611617573d6000803e3d6000fd5b50505050826023600082825461162d9190613d65565b92505081905550505050565b6000811561172e5760005b600381101561172857836005826003811061166257611661613dcd565b5b600502016000015403611715576005816003811061168357611682613dcd565b5b60050201600101548514806116b25750600581600381106116a7576116a6613dcd565b5b600502016002015485145b806116d75750600581600381106116cc576116cb613dcd565b5b600502016003015485145b806116fc5750600581600381106116f1576116f0613dcd565b5b600502016004015485145b1561170b57600191505061181c565b600091505061181c565b808061172090613dfc565b915050611644565b50611817565b60005b600381101561181557836014826003811061174f5761174e613dcd565b5b60050201600001540361180257601481600381106117705761176f613dcd565b5b600502016001015485148061179f57506014816003811061179457611793613dcd565b5b600502016002015485145b806117c45750601481600381106117b9576117b8613dcd565b5b600502016003015485145b806117e95750601481600381106117de576117dd613dcd565b5b600502016004015485145b156117f857600191505061181c565b600091505061181c565b808061180d90613dfc565b915050611731565b505b600090505b9392505050565b60266020528060005260406000206000915054906101000a900460ff1681565b60255481565b600042841115611919576064670de0b6b3a7640000600460009054906101000a900473ffffffffffffffffffffffffffffffffffffffff1673ffffffffffffffffffffffffffffffffffffffff166373000be88587896040518463ffffffff1660e01b81526004016118bd93929190614202565b602060405180830381865afa1580156118da573d6000803e3d6000fd5b505050506040513d601f19601f820116820180604052508101906118fe9190613c67565b6119089190613d23565b6119129190613cf2565b9050611a53565b6027600085815260200190815260200160002060009054906101000a900460ff16611979576040517f08c379a000000000000000000000000000000000000000000000000000000000815260040161197090614285565b60405180910390fd5b60266000600260009054906101000a900473ffffffffffffffffffffffffffffffffffffffff1673ffffffffffffffffffffffffffffffffffffffff16632d27c4be8787876040518463ffffffff1660e01b81526004016119dc93929190613a0e565b602060405180830381865afa1580156119f9573d6000803e3d6000fd5b505050506040513d601f19601f82011682018060405250810190611a1d9190613c67565b815260200190815260200160002060009054906101000a900460ff1615611a4e57670de0b6b3a76400009050611a53565b600090505b9392505050565b611a62612ae0565b611a6c6000613231565b565b60148160038110611a7e57600080fd5b600502016000915090508060000154908060010154908060020154908060030154908060040154905085565b60235481565b602c8060000154908060010154908060020160009054906101000a900460ff16908060030154905084565b600115156026600084815260200190815260200160002060009054906101000a900460ff16151514611b42576040517f08c379a0000000000000000000000000000000000000000000000000000000008152600401611b39906142f1565b60405180910390fd5b600260009054906101000a900473ffffffffffffffffffffffffffffffffffffffff1673ffffffffffffffffffffffffffffffffffffffff1663f5298aca3384846040518463ffffffff1660e01b8152600401611ba1939291906140a4565b600060405180830381600087803b158015611bbb57600080fd5b505af1158015611bcf573d6000803e3d6000fd5b50505050600160009054906101000a900473ffffffffffffffffffffffffffffffffffffffff1673ffffffffffffffffffffffffffffffffffffffff1663a9059cbb33670de0b6b3a764000084611c269190613d23565b6040518363ffffffff1660e01b8152600401611c439291906141d9565b6020604051808303816000875af1158015611c62573d6000803e3d6000fd5b505050506040513d601f19601f82011682018060405250810190611c86919061400b565b50670de0b6b3a764000081611c9b9190613d23565b602554611ca89190613d99565b6025819055505050565b600460009054906101000a900473ffffffffffffffffffffffffffffffffffffffff1681565b602c60010154602b60003373ffffffffffffffffffffffffffffffffffffffff1673ffffffffffffffffffffffffffffffffffffffff1681526020019081526020016000206001015410611d61576040517f08c379a0000000000000000000000000000000000000000000000000000000008152600401611d589061435d565b60405180910390fd5b602b60003373ffffffffffffffffffffffffffffffffffffffff1673ffffffffffffffffffffffffffffffffffffffff16815260200190815260200160002060020160009054906101000a900460ff1615611df1576040517f08c379a0000000000000000000000000000000000000000000000000000000008152600401611de8906143c9565b60405180910390fd5b600060286000602b60003373ffffffffffffffffffffffffffffffffffffffff1673ffffffffffffffffffffffffffffffffffffffff1681526020019081526020016000206001015481526020019081526020016000205490506000602b60003373ffffffffffffffffffffffffffffffffffffffff1673ffffffffffffffffffffffffffffffffffffffff16815260200190815260200160002060000154905060008282611ea09190613d23565b9050600160009054906101000a900473ffffffffffffffffffffffffffffffffffffffff1673ffffffffffffffffffffffffffffffffffffffff1663a9059cbb33836040518363ffffffff1660e01b8152600401611eff9291906141d9565b6020604051808303816000875af1158015611f1e573d6000803e3d6000fd5b505050506040513d601f19601f82011682018060405250810190611f42919061400b565b611f81576040517f08c379a0000000000000000000000000000000000000000000000000000000008152600401611f789061445b565b60405180910390fd5b80602a54611f8f9190613d99565b602a819055506001602b60003373ffffffffffffffffffffffffffffffffffffffff1673ffffffffffffffffffffffffffffffffffffffff16815260200190815260200160002060020160006101000a81548160ff021916908315150217905550505050565b600160009054906101000a900473ffffffffffffffffffffffffffffffffffffffff1681565b60276020528060005260406000206000915054906101000a900460ff1681565b60008060009054906101000a900473ffffffffffffffffffffffffffffffffffffffff16905090565b60006120708383611159565b80156120835750612082848484611639565b5b156120915760019050612096565b600090505b9392505050565b60008180156120ac5750838310155b156120ba57600190506120db565b811580156120c85750838311155b156120d657600190506120db565b600090505b9392505050565b600260009054906101000a900473ffffffffffffffffffffffffffffffffffffffff1681565b6000612112610a04565b61211a610b65565b6121249190613d65565b905090565b612131612ae0565b428210612173576040517f08c379a000000000000000000000000000000000000000000000000000000000815260040161216a906144c7565b60405180910390fd5b6027600083815260200190815260200160002060009054906101000a900460ff16156121d4576040517f08c379a00000000000000000000000000000000000000000000000000000000081526004016121cb90614533565b60405180910390fd5b60005b60038110156123985782600582600381106121f5576121f4613dcd565b5b6005020160000154036123855761222a836005836003811061221a57612219613dcd565b5b60050201600101546001856132f5565b612252836005836003811061224257612241613dcd565b5b60050201600201546001856132f5565b61227a836005836003811061226a57612269613dcd565b5b60050201600301546001856132f5565b6122a2836005836003811061229257612291613dcd565b5b60050201600401546001856132f5565b6122ca83601483600381106122ba576122b9613dcd565b5b60050201600101546000856132f5565b6122f283601483600381106122e2576122e1613dcd565b5b60050201600201546000856132f5565b61231a836014836003811061230a57612309613dcd565b5b60050201600301546000856132f5565b612342836014836003811061233257612331613dcd565b5b60050201600401546000856132f5565b60016027600085815260200190815260200160002060006101000a81548160ff02191690831515021790555061237661120d565b1561238457612383610826565b5b5b808061239090613dfc565b9150506121d7565b505050565b600581600381106123ad57600080fd5b600502016000915090508060000154908060010154908060020154908060030154908060040154905085565b6000600460009054906101000a900473ffffffffffffffffffffffffffffffffffffffff1673ffffffffffffffffffffffffffffffffffffffff166373dc05198585856040518463ffffffff1660e01b815260040161243a93929190614202565b602060405180830381865afa158015612457573d6000803e3d6000fd5b505050506040513d601f19601f8201168201806040525081019061247b9190613c67565b90509392505050565b602b6020528060005260406000206000915090508060000154908060010154908060020160009054906101000a900460ff16905083565b6000805b83518110156125975760011515602660008684815181106124e3576124e2613dcd565b5b6020026020010151815260200190815260200160002060009054906101000a900460ff16151514612549576040517f08c379a00000000000000000000000000000000000000000000000000000000081526004016125409061459f565b60405180910390fd5b670de0b6b3a764000083828151811061256557612564613dcd565b5b60200260200101516125779190613d23565b826125829190613d65565b9150808061258f90613dfc565b9150506124bf565b50600260009054906101000a900473ffffffffffffffffffffffffffffffffffffffff1673ffffffffffffffffffffffffffffffffffffffff16636b20c4543385856040518463ffffffff1660e01b81526004016125f79392919061467d565b600060405180830381600087803b15801561261157600080fd5b505af1158015612625573d6000803e3d6000fd5b50505050600160009054906101000a900473ffffffffffffffffffffffffffffffffffffffff1673ffffffffffffffffffffffffffffffffffffffff1663a9059cbb33836040518363ffffffff1660e01b81526004016126869291906141d9565b6020604051808303816000875af11580156126a5573d6000803e3d6000fd5b505050506040513d601f19601f820116820180604052508101906126c9919061400b565b50806025546126d89190613d99565b602581905550505050565b6126ec33611280565b156126fa576126f9611cd8565b5b600360009054906101000a900473ffffffffffffffffffffffffffffffffffffffff1673ffffffffffffffffffffffffffffffffffffffff166323b872dd3330846040518463ffffffff1660e01b815260040161275993929190613fbf565b6020604051808303816000875af1158015612778573d6000803e3d6000fd5b505050506040513d601f19601f8201168201806040525081019061279c919061400b565b6127db576040517f08c379a00000000000000000000000000000000000000000000000000000000081526004016127d29061470e565b60405180910390fd5b6040518060600160405280828152602001602c60010154815260200160001515815250602b60003373ffffffffffffffffffffffffffffffffffffffff1673ffffffffffffffffffffffffffffffffffffffff168152602001908152602001600020600082015181600001556020820151816001015560408201518160020160006101000a81548160ff02191690831515021790555090505080602960008282546128869190613d65565b9250508190555050565b612898612ae0565b600073ffffffffffffffffffffffffffffffffffffffff168173ffffffffffffffffffffffffffffffffffffffff1603612907576040517f08c379a00000000000000000000000000000000000000000000000000000000081526004016128fe906147a0565b60405180910390fd5b61291081613231565b50565b60286020528060005260406000206000915090505481565b6000602354612938612108565b6129429190613d65565b905090565b600360009054906101000a900473ffffffffffffffffffffffffffffffffffffffff1681565b600080600260009054906101000a900473ffffffffffffffffffffffffffffffffffffffff1673ffffffffffffffffffffffffffffffffffffffff1663bd85b039600260009054906101000a900473ffffffffffffffffffffffffffffffffffffffff1673ffffffffffffffffffffffffffffffffffffffff16632d27c4be8888886040518463ffffffff1660e01b8152600401612a0d93929190613a0e565b602060405180830381865afa158015612a2a573d6000803e3d6000fd5b505050506040513d601f19601f82011682018060405250810190612a4e9190613c67565b6040518263ffffffff1660e01b8152600401612a6a9190613558565b602060405180830381865afa158015612a87573d6000803e3d6000fd5b505050506040513d601f19601f82011682018060405250810190612aab9190613c67565b612ab6868686611849565b670de0b6b3a7640000612ac99190613d99565b612ad39190613d23565b9050809150509392505050565b612ae8613537565b73ffffffffffffffffffffffffffffffffffffffff16612b0661203b565b73ffffffffffffffffffffffffffffffffffffffff1614612b5c576040517f08c379a0000000000000000000000000000000000000000000000000000000008152600401612b539061480c565b60405180910390fd5b565b602c60020160009054906101000a900460ff16612bb0576040517f08c379a0000000000000000000000000000000000000000000000000000000008152600401612ba790614878565b60405180910390fd5b600042905060405180608001604052808281526020016201518083612bd59190613d65565b8152602001600015158152602001600460009054906101000a900473ffffffffffffffffffffffffffffffffffffffff1673ffffffffffffffffffffffffffffffffffffffff166398d5fdca6040518163ffffffff1660e01b8152600401602060405180830381865afa158015612c50573d6000803e3d6000fd5b505050506040513d601f19601f82011682018060405250810190612c749190613c67565b815250602c600082015181600001556020820151816001015560408201518160020160006101000a81548160ff021916908315150217905550606082015181600301559050506040518060a0016040528061546083612cd39190613d65565b8152602001612cf2600161546085612ceb9190613d65565b600a6123d9565b8152602001612d11600161546085612d0a9190613d65565b60646123d9565b8152602001612d30600161546085612d299190613d65565b60fa6123d9565b8152602001612d50600161546085612d489190613d65565b6101f46123d9565b8152506005600060038110612d6857612d67613dcd565b5b6005020160008201518160000155602082015181600101556040820151816002015560608201518160030155608082015181600401559050506040518060a0016040528061a8c083612dba9190613d65565b8152602001612dd9600161a8c085612dd29190613d65565b600a6123d9565b8152602001612df8600161a8c085612df19190613d65565b60646123d9565b8152602001612e17600161a8c085612e109190613d65565b60fa6123d9565b8152602001612e37600161a8c085612e2f9190613d65565b6101f46123d9565b8152506005600160038110612e4f57612e4e613dcd565b5b6005020160008201518160000155602082015181600101556040820151816002015560608201518160030155608082015181600401559050506040518060a001604052806201518083612ea29190613d65565b8152602001612ec260016201518085612ebb9190613d65565b600a6123d9565b8152602001612ee260016201518085612edb9190613d65565b60646123d9565b8152602001612f0260016201518085612efb9190613d65565b60fa6123d9565b8152602001612f2360016201518085612f1b9190613d65565b6101f46123d9565b8152506005600260038110612f3b57612f3a613dcd565b5b6005020160008201518160000155602082015181600101556040820151816002015560608201518160030155608082015181600401559050506040518060a0016040528061546083612f8d9190613d65565b8152602001612fac600061546085612fa59190613d65565b600a6123d9565b8152602001612fcb600061546085612fc49190613d65565b60646123d9565b8152602001612fea600061546085612fe39190613d65565b60fa6123d9565b815260200161300a6000615460856130029190613d65565b6101f46123d9565b815250601460006003811061302257613021613dcd565b5b6005020160008201518160000155602082015181600101556040820151816002015560608201518160030155608082015181600401559050506040518060a0016040528061a8c0836130749190613d65565b8152602001613093600061a8c08561308c9190613d65565b600a6123d9565b81526020016130b2600061a8c0856130ab9190613d65565b60646123d9565b81526020016130d1600061a8c0856130ca9190613d65565b60fa6123d9565b81526020016130f1600061a8c0856130e99190613d65565b6101f46123d9565b815250601460016003811061310957613108613dcd565b5b6005020160008201518160000155602082015181600101556040820151816002015560608201518160030155608082015181600401559050506040518060a00160405280620151808361315c9190613d65565b815260200161317c600062015180856131759190613d65565b600a6123d9565b815260200161319c600062015180856131959190613d65565b60646123d9565b81526020016131bc600062015180856131b59190613d65565b60fa6123d9565b81526020016131dd600062015180856131d59190613d65565b6101f46123d9565b81525060146002600381106131f5576131f4613dcd565b5b60050201600082015181600001556020820151816001015560408201518160020155606082015181600301556080820151816004015590505050565b60008060009054906101000a900473ffffffffffffffffffffffffffffffffffffffff169050816000806101000a81548173ffffffffffffffffffffffffffffffffffffffff021916908373ffffffffffffffffffffffffffffffffffffffff1602179055508173ffffffffffffffffffffffffffffffffffffffff168173ffffffffffffffffffffffffffffffffffffffff167f8be0079c531659141344cd1fd0a4f28419497f9722a3daafe3b4186f6b6457e060405160405180910390a35050565b6000600260009054906101000a900473ffffffffffffffffffffffffffffffffffffffff1673ffffffffffffffffffffffffffffffffffffffff16632d27c4be8686866040518463ffffffff1660e01b815260040161335693929190613a0e565b602060405180830381865afa158015613373573d6000803e3d6000fd5b505050506040513d601f19601f820116820180604052508101906133979190613c67565b90506000600260009054906101000a900473ffffffffffffffffffffffffffffffffffffffff1673ffffffffffffffffffffffffffffffffffffffff1663bd85b039836040518263ffffffff1660e01b81526004016133f69190613558565b602060405180830381865afa158015613413573d6000803e3d6000fd5b505050506040513d601f19601f820116820180604052508101906134379190613c67565b9050670de0b6b3a76400008161344d9190613d23565b60245461345a9190613d99565b602481905550600061346d86858761209d565b905080156134a157670de0b6b3a7640000826134899190613d23565b6025546134969190613d65565b6025819055506134c9565b670de0b6b3a7640000826134b59190613d23565b6023546134c29190613d65565b6023819055505b806026600085815260200190815260200160002060006101000a81548160ff0219169083151502179055508015157f590531e38722ec9a8a918f1d6ad31dadcb02c03ea62e51cff887cdcb3828830e846040516135269190613558565b60405180910390a250505050505050565b600033905090565b6000819050919050565b6135528161353f565b82525050565b600060208201905061356d6000830184613549565b92915050565b60008115159050919050565b61358881613573565b82525050565b60006020820190506135a3600083018461357f565b92915050565b6000604051905090565b600080fd5b600080fd5b6135c68161353f565b81146135d157600080fd5b50565b6000813590506135e3816135bd565b92915050565b6135f281613573565b81146135fd57600080fd5b50565b60008135905061360f816135e9565b92915050565b60008060006060848603121561362e5761362d6135b3565b5b600061363c868287016135d4565b935050602061364d868287016135d4565b925050604061365e86828701613600565b9150509250925092565b60008060008060808587031215613682576136816135b3565b5b6000613690878288016135d4565b94505060206136a1878288016135d4565b93505060406136b2878288016135d4565b92505060606136c387828801613600565b91505092959194509250565b600080604083850312156136e6576136e56135b3565b5b60006136f4858286016135d4565b925050602061370585828601613600565b9150509250929050565b600073ffffffffffffffffffffffffffffffffffffffff82169050919050565b600061373a8261370f565b9050919050565b61374a8161372f565b811461375557600080fd5b50565b60008135905061376781613741565b92915050565b600060208284031215613783576137826135b3565b5b600061379184828501613758565b91505092915050565b6000602082840312156137b0576137af6135b3565b5b60006137be848285016135d4565b91505092915050565b600060a0820190506137dc6000830188613549565b6137e96020830187613549565b6137f66040830186613549565b6138036060830185613549565b6138106080830184613549565b9695505050505050565b600060808201905061382f6000830187613549565b61383c6020830186613549565b613849604083018561357f565b6138566060830184613549565b95945050505050565b60008060408385031215613876576138756135b3565b5b6000613884858286016135d4565b9250506020613895858286016135d4565b9150509250929050565b6000819050919050565b60006138c46138bf6138ba8461370f565b61389f565b61370f565b9050919050565b60006138d6826138a9565b9050919050565b60006138e8826138cb565b9050919050565b6138f8816138dd565b82525050565b600060208201905061391360008301846138ef565b92915050565b6000613924826138cb565b9050919050565b61393481613919565b82525050565b600060208201905061394f600083018461392b565b92915050565b61395e8161372f565b82525050565b60006020820190506139796000830184613955565b92915050565b600061398a826138cb565b9050919050565b61399a8161397f565b82525050565b60006020820190506139b56000830184613991565b92915050565b6000806000606084860312156139d4576139d36135b3565b5b60006139e286828701613600565b93505060206139f3868287016135d4565b9250506040613a04868287016135d4565b9150509250925092565b6000606082019050613a236000830186613549565b613a306020830185613549565b613a3d604083018461357f565b949350505050565b600080fd5b6000601f19601f8301169050919050565b7f4e487b7100000000000000000000000000000000000000000000000000000000600052604160045260246000fd5b613a9382613a4a565b810181811067ffffffffffffffff82111715613ab257613ab1613a5b565b5b80604052505050565b6000613ac56135a9565b9050613ad18282613a8a565b919050565b600067ffffffffffffffff821115613af157613af0613a5b565b5b602082029050602081019050919050565b600080fd5b6000613b1a613b1584613ad6565b613abb565b90508083825260208201905060208402830185811115613b3d57613b3c613b02565b5b835b81811015613b665780613b5288826135d4565b845260208401935050602081019050613b3f565b5050509392505050565b600082601f830112613b8557613b84613a45565b5b8135613b95848260208601613b07565b91505092915050565b60008060408385031215613bb557613bb46135b3565b5b600083013567ffffffffffffffff811115613bd357613bd26135b8565b5b613bdf85828601613b70565b925050602083013567ffffffffffffffff811115613c0057613bff6135b8565b5b613c0c85828601613b70565b9150509250929050565b6000613c21826138cb565b9050919050565b613c3181613c16565b82525050565b6000602082019050613c4c6000830184613c28565b92915050565b600081519050613c61816135bd565b92915050565b600060208284031215613c7d57613c7c6135b3565b5b6000613c8b84828501613c52565b91505092915050565b7f4e487b7100000000000000000000000000000000000000000000000000000000600052601260045260246000fd5b7f4e487b7100000000000000000000000000000000000000000000000000000000600052601160045260246000fd5b6000613cfd8261353f565b9150613d088361353f565b925082613d1857613d17613c94565b5b828204905092915050565b6000613d2e8261353f565b9150613d398361353f565b9250828202613d478161353f565b91508282048414831517613d5e57613d5d613cc3565b5b5092915050565b6000613d708261353f565b9150613d7b8361353f565b9250828201905080821115613d9357613d92613cc3565b5b92915050565b6000613da48261353f565b9150613daf8361353f565b9250828203905081811115613dc757613dc6613cc3565b5b92915050565b7f4e487b7100000000000000000000000000000000000000000000000000000000600052603260045260246000fd5b6000613e078261353f565b91507fffffffffffffffffffffffffffffffffffffffffffffffffffffffffffffffff8203613e3957613e38613cc3565b5b600182019050919050565b600082825260208201905092915050565b7f4f7074696f6e206e6f742076616c696420696e20746869732045706f63680000600082015250565b6000613e8b601e83613e44565b9150613e9682613e55565b602082019050919050565b60006020820190508181036000830152613eba81613e7e565b9050919050565b7f4f7074696f6e20416c7265616479204578706972656400000000000000000000600082015250565b6000613ef7601683613e44565b9150613f0282613ec1565b602082019050919050565b60006020820190508181036000830152613f2681613eea565b9050919050565b7f507572636861736520776f756c6420657863656564206d6178436f6e7472616360008201527f7473417661696c61626c65000000000000000000000000000000000000000000602082015250565b6000613f89602b83613e44565b9150613f9482613f2d565b604082019050919050565b60006020820190508181036000830152613fb881613f7c565b9050919050565b6000606082019050613fd46000830186613955565b613fe16020830185613955565b613fee6040830184613549565b949350505050565b600081519050614005816135e9565b92915050565b600060208284031215614021576140206135b3565b5b600061402f84828501613ff6565b91505092915050565b7f55534443207072656d69756d207061796d656e74206661696c65640000000000600082015250565b600061406e601b83613e44565b915061407982614038565b602082019050919050565b6000602082019050818103600083015261409d81614061565b9050919050565b60006060820190506140b96000830186613955565b6140c66020830185613549565b6140d36040830184613549565b949350505050565b7f4465706f736974732053757370656e6465642054656d706f726172696c790000600082015250565b6000614111601e83613e44565b915061411c826140db565b602082019050919050565b6000602082019050818103600083015261414081614104565b9050919050565b7f4c69717569646974794465706f7369743a205472616e73666572204661696c6560008201527f6400000000000000000000000000000000000000000000000000000000000000602082015250565b60006141a3602183613e44565b91506141ae82614147565b604082019050919050565b600060208201905081810360008301526141d281614196565b9050919050565b60006040820190506141ee6000830185613955565b6141fb6020830184613549565b9392505050565b6000606082019050614217600083018661357f565b6142246020830185613549565b6142316040830184613549565b949350505050565b7f457870697279206973206e6f74207265736f6c76656400000000000000000000600082015250565b600061426f601683613e44565b915061427a82614239565b602082019050919050565b6000602082019050818103600083015261429e81614262565b9050919050565b7f4f7074696f6e2065787069726564206f7574206f6620746865206d6f6e657900600082015250565b60006142db601f83613e44565b91506142e6826142a5565b602082019050919050565b6000602082019050818103600083015261430a816142ce565b9050919050565b7f45706f6368206e6f7420656e6465642079657400000000000000000000000000600082015250565b6000614347601383613e44565b915061435282614311565b602082019050919050565b600060208201905081810360008301526143768161433a565b9050919050565b7f5769746864726177616c20416c726561647920436c61696d6564000000000000600082015250565b60006143b3601a83613e44565b91506143be8261437d565b602082019050919050565b600060208201905081810360008301526143e2816143a6565b9050919050565b7f5553443a20446973747269627574696f6e205472616e73666572204661696c6560008201527f6400000000000000000000000000000000000000000000000000000000000000602082015250565b6000614445602183613e44565b9150614450826143e9565b604082019050919050565b6000602082019050818103600083015261447481614438565b9050919050565b7f4f7074696f6e20686173206e6f74206578706972656420796574000000000000600082015250565b60006144b1601a83613e44565b91506144bc8261447b565b602082019050919050565b600060208201905081810360008301526144e0816144a4565b9050919050565b7f45787069727920697320616c7265616479207265736f6c766564000000000000600082015250565b600061451d601a83613e44565b9150614528826144e7565b602082019050919050565b6000602082019050818103600083015261454c81614510565b9050919050565b7f4f7074696f6e2045787069726564204f7574206f6620746865206d6f6e657900600082015250565b6000614589601f83613e44565b915061459482614553565b602082019050919050565b600060208201905081810360008301526145b88161457c565b9050919050565b600081519050919050565b600082825260208201905092915050565b6000819050602082019050919050565b6145f48161353f565b82525050565b600061460683836145eb565b60208301905092915050565b6000602082019050919050565b600061462a826145bf565b61463481856145ca565b935061463f836145db565b8060005b8381101561467057815161465788826145fa565b975061466283614612565b925050600181019050614643565b5085935050505092915050565b60006060820190506146926000830186613955565b81810360208301526146a4818561461f565b905081810360408301526146b8818461461f565b9050949350505050565b7f4c50536861726573205472616e73666572204661696c65640000000000000000600082015250565b60006146f8601883613e44565b9150614703826146c2565b602082019050919050565b60006020820190508181036000830152614727816146eb565b9050919050565b7f4f776e61626c653a206e6577206f776e657220697320746865207a65726f206160008201527f6464726573730000000000000000000000000000000000000000000000000000602082015250565b600061478a602683613e44565b91506147958261472e565b604082019050919050565b600060208201905081810360008301526147b98161477d565b9050919050565b7f4f776e61626c653a2063616c6c6572206973206e6f7420746865206f776e6572600082015250565b60006147f6602083613e44565b9150614801826147c0565b602082019050919050565b60006020820190508181036000830152614825816147e9565b9050919050565b7f43757272656e7445706f6368206e6f74207265736f6c76656400000000000000600082015250565b6000614862601983613e44565b915061486d8261482c565b602082019050919050565b6000602082019050818103600083015261489181614855565b905091905056fea264697066735822122028d2307cea44a8c429c0b63883319d1605bc352e64f22fa77f8fd3c5cabbefe264736f6c6343000811003360806040523480156200001157600080fd5b506040518060400160405280600f81526020017f4f7074696e6f204c5020536861726500000000000000000000000000000000008152506040518060400160405280600481526020017f4f4c50530000000000000000000000000000000000000000000000000000000081525081600390816200008f919062000412565b508060049081620000a1919062000412565b505050620000c4620000b8620000ca60201b60201c565b620000d260201b60201c565b620004f9565b600033905090565b6000600560009054906101000a900473ffffffffffffffffffffffffffffffffffffffff16905081600560006101000a81548173ffffffffffffffffffffffffffffffffffffffff021916908373ffffffffffffffffffffffffffffffffffffffff1602179055508173ffffffffffffffffffffffffffffffffffffffff168173ffffffffffffffffffffffffffffffffffffffff167f8be0079c531659141344cd1fd0a4f28419497f9722a3daafe3b4186f6b6457e060405160405180910390a35050565b600081519050919050565b7f4e487b7100000000000000000000000000000000000000000000000000000000600052604160045260246000fd5b7f4e487b7100000000000000000000000000000000000000000000000000000000600052602260045260246000fd5b600060028204905060018216806200021a57607f821691505b60208210810362000230576200022f620001d2565b5b50919050565b60008190508160005260206000209050919050565b60006020601f8301049050919050565b600082821b905092915050565b6000600883026200029a7fffffffffffffffffffffffffffffffffffffffffffffffffffffffffffffffff826200025b565b620002a686836200025b565b95508019841693508086168417925050509392505050565b6000819050919050565b6000819050919050565b6000620002f3620002ed620002e784620002be565b620002c8565b620002be565b9050919050565b6000819050919050565b6200030f83620002d2565b620003276200031e82620002fa565b84845462000268565b825550505050565b600090565b6200033e6200032f565b6200034b81848462000304565b505050565b5b8181101562000373576200036760008262000334565b60018101905062000351565b5050565b601f821115620003c2576200038c8162000236565b62000397846200024b565b81016020851015620003a7578190505b620003bf620003b6856200024b565b83018262000350565b50505b505050565b600082821c905092915050565b6000620003e760001984600802620003c7565b1980831691505092915050565b6000620004028383620003d4565b9150826002028217905092915050565b6200041d8262000198565b67ffffffffffffffff811115620004395762000438620001a3565b5b62000445825462000201565b6200045282828562000377565b600060209050601f8311600181146200048a576000841562000475578287015190505b620004818582620003f4565b865550620004f1565b601f1984166200049a8662000236565b60005b82811015620004c4578489015182556001820191506020850194506020810190506200049d565b86831015620004e45784890151620004e0601f891682620003d4565b8355505b6001600288020188555050505b505050505050565b611bce80620005096000396000f3fe608060405234801561001057600080fd5b50600436106101165760003560e01c806370a08231116100a257806395d89b411161007157806395d89b41146102cf578063a457c2d7146102ed578063a9059cbb1461031d578063dd62ed3e1461034d578063f2fde38b1461037d57610116565b806370a082311461025b578063715018a61461028b57806379cc6790146102955780638da5cb5b146102b157610116565b8063313ce567116100e9578063313ce567146101b757806339509351146101d557806340c10f191461020557806342966c68146102215780635bec9e671461023d57610116565b806306fdde031461011b578063095ea7b31461013957806318160ddd1461016957806323b872dd14610187575b600080fd5b610123610399565b60405161013091906111c6565b60405180910390f35b610153600480360381019061014e9190611281565b61042b565b60405161016091906112dc565b60405180910390f35b61017161044e565b60405161017e9190611306565b60405180910390f35b6101a1600480360381019061019c9190611321565b610458565b6040516101ae91906112dc565b60405180910390f35b6101bf610487565b6040516101cc9190611390565b60405180910390f35b6101ef60048036038101906101ea9190611281565b610490565b6040516101fc91906112dc565b60405180910390f35b61021f600480360381019061021a9190611281565b6104c7565b005b61023b600480360381019061023691906113ab565b6104f6565b005b61024561050a565b6040516102529190611306565b60405180910390f35b610275600480360381019061027091906113d8565b610516565b6040516102829190611306565b60405180910390f35b61029361055e565b005b6102af60048036038101906102aa9190611281565b610572565b005b6102b9610592565b6040516102c69190611414565b60405180910390f35b6102d76105bc565b6040516102e491906111c6565b60405180910390f35b61030760048036038101906103029190611281565b61064e565b60405161031491906112dc565b60405180910390f35b61033760048036038101906103329190611281565b6106c5565b60405161034491906112dc565b60405180910390f35b6103676004803603810190610362919061142f565b6106e8565b6040516103749190611306565b60405180910390f35b610397600480360381019061039291906113d8565b61076f565b005b6060600380546103a89061149e565b80601f01602080910402602001604051908101604052809291908181526020018280546103d49061149e565b80156104215780601f106103f657610100808354040283529160200191610421565b820191906000526020600020905b81548152906001019060200180831161040457829003601f168201915b5050505050905090565b6000806104366107f2565b90506104438185856107fa565b600191505092915050565b6000600254905090565b6000806104636107f2565b90506104708582856109c3565b61047b858585610a4f565b60019150509392505050565b60006012905090565b60008061049b6107f2565b90506104bc8185856104ad85896106e8565b6104b791906114fe565b6107fa565b600191505092915050565b6104cf610cc5565b6104d98282610d43565b6104f2826104e5610592565b6104ed61050a565b6107fa565b5050565b6105076105016107f2565b82610e99565b50565b60006001600003905090565b60008060008373ffffffffffffffffffffffffffffffffffffffff1673ffffffffffffffffffffffffffffffffffffffff168152602001908152602001600020549050919050565b610566610cc5565b6105706000611066565b565b6105848261057e6107f2565b836109c3565b61058e8282610e99565b5050565b6000600560009054906101000a900473ffffffffffffffffffffffffffffffffffffffff16905090565b6060600480546105cb9061149e565b80601f01602080910402602001604051908101604052809291908181526020018280546105f79061149e565b80156106445780601f1061061957610100808354040283529160200191610644565b820191906000526020600020905b81548152906001019060200180831161062757829003601f168201915b5050505050905090565b6000806106596107f2565b9050600061066782866106e8565b9050838110156106ac576040517f08c379a00000000000000000000000000000000000000000000000000000000081526004016106a3906115a4565b60405180910390fd5b6106b982868684036107fa565b60019250505092915050565b6000806106d06107f2565b90506106dd818585610a4f565b600191505092915050565b6000600160008473ffffffffffffffffffffffffffffffffffffffff1673ffffffffffffffffffffffffffffffffffffffff16815260200190815260200160002060008373ffffffffffffffffffffffffffffffffffffffff1673ffffffffffffffffffffffffffffffffffffffff16815260200190815260200160002054905092915050565b610777610cc5565b600073ffffffffffffffffffffffffffffffffffffffff168173ffffffffffffffffffffffffffffffffffffffff16036107e6576040517f08c379a00000000000000000000000000000000000000000000000000000000081526004016107dd90611636565b60405180910390fd5b6107ef81611066565b50565b600033905090565b600073ffffffffffffffffffffffffffffffffffffffff168373ffffffffffffffffffffffffffffffffffffffff1603610869576040517f08c379a0000000000000000000000000000000000000000000000000000000008152600401610860906116c8565b60405180910390fd5b600073ffffffffffffffffffffffffffffffffffffffff168273ffffffffffffffffffffffffffffffffffffffff16036108d8576040517f08c379a00000000000000000000000000000000000000000000000000000000081526004016108cf9061175a565b60405180910390fd5b80600160008573ffffffffffffffffffffffffffffffffffffffff1673ffffffffffffffffffffffffffffffffffffffff16815260200190815260200160002060008473ffffffffffffffffffffffffffffffffffffffff1673ffffffffffffffffffffffffffffffffffffffff168152602001908152602001600020819055508173ffffffffffffffffffffffffffffffffffffffff168373ffffffffffffffffffffffffffffffffffffffff167f8c5be1e5ebec7d5bd14f71427d1e84f3dd0314c0f7b2291e5b200ac8c7c3b925836040516109b69190611306565b60405180910390a3505050565b60006109cf84846106e8565b90507fffffffffffffffffffffffffffffffffffffffffffffffffffffffffffffffff8114610a495781811015610a3b576040517f08c379a0000000000000000000000000000000000000000000000000000000008152600401610a32906117c6565b60405180910390fd5b610a4884848484036107fa565b5b50505050565b600073ffffffffffffffffffffffffffffffffffffffff168373ffffffffffffffffffffffffffffffffffffffff1603610abe576040517f08c379a0000000000000000000000000000000000000000000000000000000008152600401610ab590611858565b60405180910390fd5b600073ffffffffffffffffffffffffffffffffffffffff168273ffffffffffffffffffffffffffffffffffffffff1603610b2d576040517f08c379a0000000000000000000000000000000000000000000000000000000008152600401610b24906118ea565b60405180910390fd5b610b3883838361112c565b60008060008573ffffffffffffffffffffffffffffffffffffffff1673ffffffffffffffffffffffffffffffffffffffff16815260200190815260200160002054905081811015610bbe576040517f08c379a0000000000000000000000000000000000000000000000000000000008152600401610bb59061197c565b60405180910390fd5b8181036000808673ffffffffffffffffffffffffffffffffffffffff1673ffffffffffffffffffffffffffffffffffffffff16815260200190815260200160002081905550816000808573ffffffffffffffffffffffffffffffffffffffff1673ffffffffffffffffffffffffffffffffffffffff168152602001908152602001600020600082825401925050819055508273ffffffffffffffffffffffffffffffffffffffff168473ffffffffffffffffffffffffffffffffffffffff167fddf252ad1be2c89b69c2b068fc378daa952ba7f163c4a11628f55a4df523b3ef84604051610cac9190611306565b60405180910390a3610cbf848484611131565b50505050565b610ccd6107f2565b73ffffffffffffffffffffffffffffffffffffffff16610ceb610592565b73ffffffffffffffffffffffffffffffffffffffff1614610d41576040517f08c379a0000000000000000000000000000000000000000000000000000000008152600401610d38906119e8565b60405180910390fd5b565b600073ffffffffffffffffffffffffffffffffffffffff168273ffffffffffffffffffffffffffffffffffffffff1603610db2576040517f08c379a0000000000000000000000000000000000000000000000000000000008152600401610da990611a54565b60405180910390fd5b610dbe6000838361112c565b8060026000828254610dd091906114fe565b92505081905550806000808473ffffffffffffffffffffffffffffffffffffffff1673ffffffffffffffffffffffffffffffffffffffff168152602001908152602001600020600082825401925050819055508173ffffffffffffffffffffffffffffffffffffffff16600073ffffffffffffffffffffffffffffffffffffffff167fddf252ad1be2c89b69c2b068fc378daa952ba7f163c4a11628f55a4df523b3ef83604051610e819190611306565b60405180910390a3610e9560008383611131565b5050565b600073ffffffffffffffffffffffffffffffffffffffff168273ffffffffffffffffffffffffffffffffffffffff1603610f08576040517f08c379a0000000000000000000000000000000000000000000000000000000008152600401610eff90611ae6565b60405180910390fd5b610f148260008361112c565b60008060008473ffffffffffffffffffffffffffffffffffffffff1673ffffffffffffffffffffffffffffffffffffffff16815260200190815260200160002054905081811015610f9a576040517f08c379a0000000000000000000000000000000000000000000000000000000008152600401610f9190611b78565b60405180910390fd5b8181036000808573ffffffffffffffffffffffffffffffffffffffff1673ffffffffffffffffffffffffffffffffffffffff1681526020019081526020016000208190555081600260008282540392505081905550600073ffffffffffffffffffffffffffffffffffffffff168373ffffffffffffffffffffffffffffffffffffffff167fddf252ad1be2c89b69c2b068fc378daa952ba7f163c4a11628f55a4df523b3ef8460405161104d9190611306565b60405180910390a361106183600084611131565b505050565b6000600560009054906101000a900473ffffffffffffffffffffffffffffffffffffffff16905081600560006101000a81548173ffffffffffffffffffffffffffffffffffffffff021916908373ffffffffffffffffffffffffffffffffffffffff1602179055508173ffffffffffffffffffffffffffffffffffffffff168173ffffffffffffffffffffffffffffffffffffffff167f8be0079c531659141344cd1fd0a4f28419497f9722a3daafe3b4186f6b6457e060405160405180910390a35050565b505050565b505050565b600081519050919050565b600082825260208201905092915050565b60005b83811015611170578082015181840152602081019050611155565b60008484015250505050565b6000601f19601f8301169050919050565b600061119882611136565b6111a28185611141565b93506111b2818560208601611152565b6111bb8161117c565b840191505092915050565b600060208201905081810360008301526111e0818461118d565b905092915050565b600080fd5b600073ffffffffffffffffffffffffffffffffffffffff82169050919050565b6000611218826111ed565b9050919050565b6112288161120d565b811461123357600080fd5b50565b6000813590506112458161121f565b92915050565b6000819050919050565b61125e8161124b565b811461126957600080fd5b50565b60008135905061127b81611255565b92915050565b60008060408385031215611298576112976111e8565b5b60006112a685828601611236565b92505060206112b78582860161126c565b9150509250929050565b60008115159050919050565b6112d6816112c1565b82525050565b60006020820190506112f160008301846112cd565b92915050565b6113008161124b565b82525050565b600060208201905061131b60008301846112f7565b92915050565b60008060006060848603121561133a576113396111e8565b5b600061134886828701611236565b935050602061135986828701611236565b925050604061136a8682870161126c565b9150509250925092565b600060ff82169050919050565b61138a81611374565b82525050565b60006020820190506113a56000830184611381565b92915050565b6000602082840312156113c1576113c06111e8565b5b60006113cf8482850161126c565b91505092915050565b6000602082840312156113ee576113ed6111e8565b5b60006113fc84828501611236565b91505092915050565b61140e8161120d565b82525050565b60006020820190506114296000830184611405565b92915050565b60008060408385031215611446576114456111e8565b5b600061145485828601611236565b925050602061146585828601611236565b9150509250929050565b7f4e487b7100000000000000000000000000000000000000000000000000000000600052602260045260246000fd5b600060028204905060018216806114b657607f821691505b6020821081036114c9576114c861146f565b5b50919050565b7f4e487b7100000000000000000000000000000000000000000000000000000000600052601160045260246000fd5b60006115098261124b565b91506115148361124b565b925082820190508082111561152c5761152b6114cf565b5b92915050565b7f45524332303a2064656372656173656420616c6c6f77616e63652062656c6f7760008201527f207a65726f000000000000000000000000000000000000000000000000000000602082015250565b600061158e602583611141565b915061159982611532565b604082019050919050565b600060208201905081810360008301526115bd81611581565b9050919050565b7f4f776e61626c653a206e6577206f776e657220697320746865207a65726f206160008201527f6464726573730000000000000000000000000000000000000000000000000000602082015250565b6000611620602683611141565b915061162b826115c4565b604082019050919050565b6000602082019050818103600083015261164f81611613565b9050919050565b7f45524332303a20617070726f76652066726f6d20746865207a65726f2061646460008201527f7265737300000000000000000000000000000000000000000000000000000000602082015250565b60006116b2602483611141565b91506116bd82611656565b604082019050919050565b600060208201905081810360008301526116e1816116a5565b9050919050565b7f45524332303a20617070726f766520746f20746865207a65726f20616464726560008201527f7373000000000000000000000000000000000000000000000000000000000000602082015250565b6000611744602283611141565b915061174f826116e8565b604082019050919050565b6000602082019050818103600083015261177381611737565b9050919050565b7f45524332303a20696e73756666696369656e7420616c6c6f77616e6365000000600082015250565b60006117b0601d83611141565b91506117bb8261177a565b602082019050919050565b600060208201905081810360008301526117df816117a3565b9050919050565b7f45524332303a207472616e736665722066726f6d20746865207a65726f20616460008201527f6472657373000000000000000000000000000000000000000000000000000000602082015250565b6000611842602583611141565b915061184d826117e6565b604082019050919050565b6000602082019050818103600083015261187181611835565b9050919050565b7f45524332303a207472616e7366657220746f20746865207a65726f206164647260008201527f6573730000000000000000000000000000000000000000000000000000000000602082015250565b60006118d4602383611141565b91506118df82611878565b604082019050919050565b60006020820190508181036000830152611903816118c7565b9050919050565b7f45524332303a207472616e7366657220616d6f756e742065786365656473206260008201527f616c616e63650000000000000000000000000000000000000000000000000000602082015250565b6000611966602683611141565b91506119718261190a565b604082019050919050565b6000602082019050818103600083015261199581611959565b9050919050565b7f4f776e61626c653a2063616c6c6572206973206e6f7420746865206f776e6572600082015250565b60006119d2602083611141565b91506119dd8261199c565b602082019050919050565b60006020820190508181036000830152611a01816119c5565b9050919050565b7f45524332303a206d696e7420746f20746865207a65726f206164647265737300600082015250565b6000611a3e601f83611141565b9150611a4982611a08565b602082019050919050565b60006020820190508181036000830152611a6d81611a31565b9050919050565b7f45524332303a206275726e2066726f6d20746865207a65726f2061646472657360008201527f7300000000000000000000000000000000000000000000000000000000000000602082015250565b6000611ad0602183611141565b9150611adb82611a74565b604082019050919050565b60006020820190508181036000830152611aff81611ac3565b9050919050565b7f45524332303a206275726e20616d6f756e7420657863656564732062616c616e60008201527f6365000000000000000000000000000000000000000000000000000000000000602082015250565b6000611b62602283611141565b9150611b6d82611b06565b604082019050919050565b60006020820190508181036000830152611b9181611b55565b905091905056fea264697066735822122019e627357808a11ee6b3be7c58077d0eb79711a6587ebdfe8eb29f93ee9daeeb64736f6c6343000811003360806040523480156200001157600080fd5b506040518060400160405280600c81526020017f697066733a2f2f6e756c6c2f000000000000000000000000000000000000000081525062000059816200008060201b60201c565b506200007a6200006e6200009560201b60201c565b6200009d60201b60201c565b620004c4565b8060029081620000919190620003dd565b5050565b600033905090565b6000600460009054906101000a900473ffffffffffffffffffffffffffffffffffffffff16905081600460006101000a81548173ffffffffffffffffffffffffffffffffffffffff021916908373ffffffffffffffffffffffffffffffffffffffff1602179055508173ffffffffffffffffffffffffffffffffffffffff168173ffffffffffffffffffffffffffffffffffffffff167f8be0079c531659141344cd1fd0a4f28419497f9722a3daafe3b4186f6b6457e060405160405180910390a35050565b600081519050919050565b7f4e487b7100000000000000000000000000000000000000000000000000000000600052604160045260246000fd5b7f4e487b7100000000000000000000000000000000000000000000000000000000600052602260045260246000fd5b60006002820490506001821680620001e557607f821691505b602082108103620001fb57620001fa6200019d565b5b50919050565b60008190508160005260206000209050919050565b60006020601f8301049050919050565b600082821b905092915050565b600060088302620002657fffffffffffffffffffffffffffffffffffffffffffffffffffffffffffffffff8262000226565b62000271868362000226565b95508019841693508086168417925050509392505050565b6000819050919050565b6000819050919050565b6000620002be620002b8620002b28462000289565b62000293565b62000289565b9050919050565b6000819050919050565b620002da836200029d565b620002f2620002e982620002c5565b84845462000233565b825550505050565b600090565b62000309620002fa565b62000316818484620002cf565b505050565b5b818110156200033e5762000332600082620002ff565b6001810190506200031c565b5050565b601f8211156200038d57620003578162000201565b620003628462000216565b8101602085101562000372578190505b6200038a620003818562000216565b8301826200031b565b50505b505050565b600082821c905092915050565b6000620003b26000198460080262000392565b1980831691505092915050565b6000620003cd83836200039f565b9150826002028217905092915050565b620003e88262000163565b67ffffffffffffffff8111156200040457620004036200016e565b5b620004108254620001cc565b6200041d82828562000342565b600060209050601f83116001811462000455576000841562000440578287015190505b6200044c8582620003bf565b865550620004bc565b601f198416620004658662000201565b60005b828110156200048f5784890151825560018201915060208501945060208101905062000468565b86831015620004af5784890151620004ab601f8916826200039f565b8355505b6001600288020188555050505b505050505050565b613ac280620004d46000396000f3fe608060405234801561001057600080fd5b50600436106101365760003560e01c8063752e7171116100b8578063cfa66fa71161007c578063cfa66fa714610371578063e184c9be1461038f578063e985e9c5146103ad578063f242432a146103dd578063f2fde38b146103f9578063f5298aca1461041557610136565b8063752e7171146102b95780638da5cb5b146102e9578063a22cb46514610307578063ad8f500814610323578063bd85b0391461034157610136565b80632eb2c2d6116100ff5780632eb2c2d6146102175780634e1273f4146102335780634f558e79146102635780636b20c45414610293578063715018a6146102af57610136565b8062fdd58e1461013b57806301ffc9a71461016b5780630e89341c1461019b578063156e29f6146101cb5780632d27c4be146101e7575b600080fd5b61015560048036038101906101509190612356565b610431565b60405161016291906123a5565b60405180910390f35b61018560048036038101906101809190612418565b6104f9565b6040516101929190612460565b60405180910390f35b6101b560048036038101906101b0919061247b565b6105db565b6040516101c29190612538565b60405180910390f35b6101e560048036038101906101e0919061255a565b61066f565b005b61020160048036038101906101fc91906125d9565b6106bd565b60405161020e91906123a5565b60405180910390f35b610231600480360381019061022c9190612829565b6106db565b005b61024d600480360381019061024891906129bb565b61077c565b60405161025a9190612af1565b60405180910390f35b61027d6004803603810190610278919061247b565b610895565b60405161028a9190612460565b60405180910390f35b6102ad60048036038101906102a89190612b13565b6108a9565b005b6102b7610946565b005b6102d360048036038101906102ce91906125d9565b61095a565b6040516102e09190612bb7565b60405180910390f35b6102f16109c5565b6040516102fe9190612be1565b60405180910390f35b610321600480360381019061031c9190612bfc565b6109ef565b005b61032b610a05565b60405161033891906123a5565b60405180910390f35b61035b6004803603810190610356919061247b565b610a0b565b60405161036891906123a5565b60405180910390f35b610379610a28565b6040516103869190612bb7565b60405180910390f35b610397610a2e565b6040516103a491906123a5565b60405180910390f35b6103c760048036038101906103c29190612c3c565b610a34565b6040516103d49190612460565b60405180910390f35b6103f760048036038101906103f29190612c7c565b610a8c565b005b610413600480360381019061040e9190612d13565b610b2d565b005b61042f600480360381019061042a919061255a565b610bb0565b005b60008073ffffffffffffffffffffffffffffffffffffffff168373ffffffffffffffffffffffffffffffffffffffff16036104a1576040517f08c379a000000000000000000000000000000000000000000000000000000000815260040161049890612db2565b60405180910390fd5b60008083815260200190815260200160002060008473ffffffffffffffffffffffffffffffffffffffff1673ffffffffffffffffffffffffffffffffffffffff16815260200190815260200160002054905092915050565b60007fd9b67a26000000000000000000000000000000000000000000000000000000007bffffffffffffffffffffffffffffffffffffffffffffffffffffffff1916827bffffffffffffffffffffffffffffffffffffffffffffffffffffffff191614806105c457507f0e89341c000000000000000000000000000000000000000000000000000000007bffffffffffffffffffffffffffffffffffffffffffffffffffffffff1916827bffffffffffffffffffffffffffffffffffffffffffffffffffffffff1916145b806105d457506105d382610c4d565b5b9050919050565b6060600280546105ea90612e01565b80601f016020809104026020016040519081016040528092919081815260200182805461061690612e01565b80156106635780601f1061063857610100808354040283529160200191610663565b820191906000526020600020905b81548152906001019060200180831161064657829003601f168201915b50505050509050919050565b610677610cb7565b6106b88383836040518060400160405280600481526020017f3078303000000000000000000000000000000000000000000000000000000000815250610d35565b505050565b6000806106cb85858561095a565b90508060001c9150509392505050565b6106e3610ee5565b73ffffffffffffffffffffffffffffffffffffffff168573ffffffffffffffffffffffffffffffffffffffff161480610729575061072885610723610ee5565b610a34565b5b610768576040517f08c379a000000000000000000000000000000000000000000000000000000000815260040161075f90612ea4565b60405180910390fd5b6107758585858585610eed565b5050505050565b606081518351146107c2576040517f08c379a00000000000000000000000000000000000000000000000000000000081526004016107b990612f36565b60405180910390fd5b6000835167ffffffffffffffff8111156107df576107de612631565b5b60405190808252806020026020018201604052801561080d5781602001602082028036833780820191505090505b50905060005b845181101561088a5761085a85828151811061083257610831612f56565b5b602002602001015185838151811061084d5761084c612f56565b5b6020026020010151610431565b82828151811061086d5761086c612f56565b5b6020026020010181815250508061088390612fb4565b9050610813565b508091505092915050565b6000806108a183610a0b565b119050919050565b6108b1610ee5565b73ffffffffffffffffffffffffffffffffffffffff168373ffffffffffffffffffffffffffffffffffffffff1614806108f757506108f6836108f1610ee5565b610a34565b5b610936576040517f08c379a000000000000000000000000000000000000000000000000000000000815260040161092d90612ea4565b60405180910390fd5b61094183838361120e565b505050565b61094e610cb7565b61095860006114dc565b565b60008115610992578383604051602001610975929190613074565b6040516020818303038152906040528051906020012090506109be565b83836040516020016109a59291906130f7565b6040516020818303038152906040528051906020012090505b9392505050565b6000600460009054906101000a900473ffffffffffffffffffffffffffffffffffffffff16905090565b610a016109fa610ee5565b83836115a2565b5050565b60065481565b600060036000838152602001908152602001600020549050919050565b60075481565b60055481565b6000610a3e6109c5565b73ffffffffffffffffffffffffffffffffffffffff168273ffffffffffffffffffffffffffffffffffffffff1603610a795760019050610a86565b610a83838361170e565b90505b92915050565b610a94610ee5565b73ffffffffffffffffffffffffffffffffffffffff168573ffffffffffffffffffffffffffffffffffffffff161480610ada5750610ad985610ad4610ee5565b610a34565b5b610b19576040517f08c379a0000000000000000000000000000000000000000000000000000000008152600401610b1090612ea4565b60405180910390fd5b610b2685858585856117a2565b5050505050565b610b35610cb7565b600073ffffffffffffffffffffffffffffffffffffffff168173ffffffffffffffffffffffffffffffffffffffff1603610ba4576040517f08c379a0000000000000000000000000000000000000000000000000000000008152600401610b9b906131a0565b60405180910390fd5b610bad816114dc565b50565b610bb8610ee5565b73ffffffffffffffffffffffffffffffffffffffff168373ffffffffffffffffffffffffffffffffffffffff161480610bfe5750610bfd83610bf8610ee5565b610a34565b5b610c3d576040517f08c379a0000000000000000000000000000000000000000000000000000000008152600401610c3490612ea4565b60405180910390fd5b610c48838383611a3d565b505050565b60007f01ffc9a7000000000000000000000000000000000000000000000000000000007bffffffffffffffffffffffffffffffffffffffffffffffffffffffff1916827bffffffffffffffffffffffffffffffffffffffffffffffffffffffff1916149050919050565b610cbf610ee5565b73ffffffffffffffffffffffffffffffffffffffff16610cdd6109c5565b73ffffffffffffffffffffffffffffffffffffffff1614610d33576040517f08c379a0000000000000000000000000000000000000000000000000000000008152600401610d2a9061320c565b60405180910390fd5b565b600073ffffffffffffffffffffffffffffffffffffffff168473ffffffffffffffffffffffffffffffffffffffff1603610da4576040517f08c379a0000000000000000000000000000000000000000000000000000000008152600401610d9b9061329e565b60405180910390fd5b6000610dae610ee5565b90506000610dbb85611c83565b90506000610dc885611c83565b9050610dd983600089858589611cfd565b8460008088815260200190815260200160002060008973ffffffffffffffffffffffffffffffffffffffff1673ffffffffffffffffffffffffffffffffffffffff1681526020019081526020016000206000828254610e3891906132be565b925050819055508673ffffffffffffffffffffffffffffffffffffffff16600073ffffffffffffffffffffffffffffffffffffffff168473ffffffffffffffffffffffffffffffffffffffff167fc3d58168c5ae7397731d063d5bbf3d657854427343f4c083240f7aacaa2d0f628989604051610eb69291906132f2565b60405180910390a4610ecd83600089858589611ecd565b610edc83600089898989611ed5565b50505050505050565b600033905090565b8151835114610f31576040517f08c379a0000000000000000000000000000000000000000000000000000000008152600401610f289061338d565b60405180910390fd5b600073ffffffffffffffffffffffffffffffffffffffff168473ffffffffffffffffffffffffffffffffffffffff1603610fa0576040517f08c379a0000000000000000000000000000000000000000000000000000000008152600401610f979061341f565b60405180910390fd5b6000610faa610ee5565b9050610fba818787878787611cfd565b60005b845181101561116b576000858281518110610fdb57610fda612f56565b5b602002602001015190506000858381518110610ffa57610ff9612f56565b5b60200260200101519050600080600084815260200190815260200160002060008b73ffffffffffffffffffffffffffffffffffffffff1673ffffffffffffffffffffffffffffffffffffffff1681526020019081526020016000205490508181101561109b576040517f08c379a0000000000000000000000000000000000000000000000000000000008152600401611092906134b1565b60405180910390fd5b81810360008085815260200190815260200160002060008c73ffffffffffffffffffffffffffffffffffffffff1673ffffffffffffffffffffffffffffffffffffffff168152602001908152602001600020819055508160008085815260200190815260200160002060008b73ffffffffffffffffffffffffffffffffffffffff1673ffffffffffffffffffffffffffffffffffffffff168152602001908152602001600020600082825461115091906132be565b925050819055505050508061116490612fb4565b9050610fbd565b508473ffffffffffffffffffffffffffffffffffffffff168673ffffffffffffffffffffffffffffffffffffffff168273ffffffffffffffffffffffffffffffffffffffff167f4a39dc06d4c0dbc64b70af90fd698a233a518aa5d07e595d983b8c0526c8f7fb87876040516111e29291906134d1565b60405180910390a46111f8818787878787611ecd565b6112068187878787876120ac565b505050505050565b600073ffffffffffffffffffffffffffffffffffffffff168373ffffffffffffffffffffffffffffffffffffffff160361127d576040517f08c379a00000000000000000000000000000000000000000000000000000000081526004016112749061357a565b60405180910390fd5b80518251146112c1576040517f08c379a00000000000000000000000000000000000000000000000000000000081526004016112b89061338d565b60405180910390fd5b60006112cb610ee5565b90506112eb81856000868660405180602001604052806000815250611cfd565b60005b835181101561143857600084828151811061130c5761130b612f56565b5b60200260200101519050600084838151811061132b5761132a612f56565b5b60200260200101519050600080600084815260200190815260200160002060008973ffffffffffffffffffffffffffffffffffffffff1673ffffffffffffffffffffffffffffffffffffffff168152602001908152602001600020549050818110156113cc576040517f08c379a00000000000000000000000000000000000000000000000000000000081526004016113c39061360c565b60405180910390fd5b81810360008085815260200190815260200160002060008a73ffffffffffffffffffffffffffffffffffffffff1673ffffffffffffffffffffffffffffffffffffffff16815260200190815260200160002081905550505050808061143090612fb4565b9150506112ee565b50600073ffffffffffffffffffffffffffffffffffffffff168473ffffffffffffffffffffffffffffffffffffffff168273ffffffffffffffffffffffffffffffffffffffff167f4a39dc06d4c0dbc64b70af90fd698a233a518aa5d07e595d983b8c0526c8f7fb86866040516114b09291906134d1565b60405180910390a46114d681856000868660405180602001604052806000815250611ecd565b50505050565b6000600460009054906101000a900473ffffffffffffffffffffffffffffffffffffffff16905081600460006101000a81548173ffffffffffffffffffffffffffffffffffffffff021916908373ffffffffffffffffffffffffffffffffffffffff1602179055508173ffffffffffffffffffffffffffffffffffffffff168173ffffffffffffffffffffffffffffffffffffffff167f8be0079c531659141344cd1fd0a4f28419497f9722a3daafe3b4186f6b6457e060405160405180910390a35050565b8173ffffffffffffffffffffffffffffffffffffffff168373ffffffffffffffffffffffffffffffffffffffff1603611610576040517f08c379a00000000000000000000000000000000000000000000000000000000081526004016116079061369e565b60405180910390fd5b80600160008573ffffffffffffffffffffffffffffffffffffffff1673ffffffffffffffffffffffffffffffffffffffff16815260200190815260200160002060008473ffffffffffffffffffffffffffffffffffffffff1673ffffffffffffffffffffffffffffffffffffffff16815260200190815260200160002060006101000a81548160ff0219169083151502179055508173ffffffffffffffffffffffffffffffffffffffff168373ffffffffffffffffffffffffffffffffffffffff167f17307eab39ab6107e8899845ad3d59bd9653f200f220920489ca2b5937696c31836040516117019190612460565b60405180910390a3505050565b6000600160008473ffffffffffffffffffffffffffffffffffffffff1673ffffffffffffffffffffffffffffffffffffffff16815260200190815260200160002060008373ffffffffffffffffffffffffffffffffffffffff1673ffffffffffffffffffffffffffffffffffffffff16815260200190815260200160002060009054906101000a900460ff16905092915050565b600073ffffffffffffffffffffffffffffffffffffffff168473ffffffffffffffffffffffffffffffffffffffff1603611811576040517f08c379a00000000000000000000000000000000000000000000000000000000081526004016118089061341f565b60405180910390fd5b600061181b610ee5565b9050600061182885611c83565b9050600061183585611c83565b9050611845838989858589611cfd565b600080600088815260200190815260200160002060008a73ffffffffffffffffffffffffffffffffffffffff1673ffffffffffffffffffffffffffffffffffffffff168152602001908152602001600020549050858110156118dc576040517f08c379a00000000000000000000000000000000000000000000000000000000081526004016118d3906134b1565b60405180910390fd5b85810360008089815260200190815260200160002060008b73ffffffffffffffffffffffffffffffffffffffff1673ffffffffffffffffffffffffffffffffffffffff168152602001908152602001600020819055508560008089815260200190815260200160002060008a73ffffffffffffffffffffffffffffffffffffffff1673ffffffffffffffffffffffffffffffffffffffff168152602001908152602001600020600082825461199191906132be565b925050819055508773ffffffffffffffffffffffffffffffffffffffff168973ffffffffffffffffffffffffffffffffffffffff168573ffffffffffffffffffffffffffffffffffffffff167fc3d58168c5ae7397731d063d5bbf3d657854427343f4c083240f7aacaa2d0f628a8a604051611a0e9291906132f2565b60405180910390a4611a24848a8a86868a611ecd565b611a32848a8a8a8a8a611ed5565b505050505050505050565b600073ffffffffffffffffffffffffffffffffffffffff168373ffffffffffffffffffffffffffffffffffffffff1603611aac576040517f08c379a0000000000000000000000000000000000000000000000000000000008152600401611aa39061357a565b60405180910390fd5b6000611ab6610ee5565b90506000611ac384611c83565b90506000611ad084611c83565b9050611af083876000858560405180602001604052806000815250611cfd565b600080600087815260200190815260200160002060008873ffffffffffffffffffffffffffffffffffffffff1673ffffffffffffffffffffffffffffffffffffffff16815260200190815260200160002054905084811015611b87576040517f08c379a0000000000000000000000000000000000000000000000000000000008152600401611b7e9061360c565b60405180910390fd5b84810360008088815260200190815260200160002060008973ffffffffffffffffffffffffffffffffffffffff1673ffffffffffffffffffffffffffffffffffffffff16815260200190815260200160002081905550600073ffffffffffffffffffffffffffffffffffffffff168773ffffffffffffffffffffffffffffffffffffffff168573ffffffffffffffffffffffffffffffffffffffff167fc3d58168c5ae7397731d063d5bbf3d657854427343f4c083240f7aacaa2d0f628989604051611c549291906132f2565b60405180910390a4611c7a84886000868660405180602001604052806000815250611ecd565b50505050505050565b60606000600167ffffffffffffffff811115611ca257611ca1612631565b5b604051908082528060200260200182016040528015611cd05781602001602082028036833780820191505090505b5090508281600081518110611ce857611ce7612f56565b5b60200260200101818152505080915050919050565b611d0b868686868686612283565b600073ffffffffffffffffffffffffffffffffffffffff168573ffffffffffffffffffffffffffffffffffffffff1603611dbc5760005b8351811015611dba57828181518110611d5e57611d5d612f56565b5b602002602001015160036000868481518110611d7d57611d7c612f56565b5b602002602001015181526020019081526020016000206000828254611da291906132be565b9250508190555080611db390612fb4565b9050611d42565b505b600073ffffffffffffffffffffffffffffffffffffffff168473ffffffffffffffffffffffffffffffffffffffff1603611ec55760005b8351811015611ec3576000848281518110611e1157611e10612f56565b5b602002602001015190506000848381518110611e3057611e2f612f56565b5b6020026020010151905060006003600084815260200190815260200160002054905081811015611e95576040517f08c379a0000000000000000000000000000000000000000000000000000000008152600401611e8c90613730565b60405180910390fd5b818103600360008581526020019081526020016000208190555050505080611ebc90612fb4565b9050611df3565b505b505050505050565b505050505050565b611ef48473ffffffffffffffffffffffffffffffffffffffff1661228b565b156120a4578373ffffffffffffffffffffffffffffffffffffffff1663f23a6e6187878686866040518663ffffffff1660e01b8152600401611f3a9594939291906137a5565b6020604051808303816000875af1925050508015611f7657506040513d601f19601f82011682018060405250810190611f739190613814565b60015b61201b57611f8261384e565b806308c379a003611fde5750611f96613870565b80611fa15750611fe0565b806040517f08c379a0000000000000000000000000000000000000000000000000000000008152600401611fd59190612538565b60405180910390fd5b505b6040517f08c379a000000000000000000000000000000000000000000000000000000000815260040161201290613972565b60405180910390fd5b63f23a6e6160e01b7bffffffffffffffffffffffffffffffffffffffffffffffffffffffff1916817bffffffffffffffffffffffffffffffffffffffffffffffffffffffff1916146120a2576040517f08c379a000000000000000000000000000000000000000000000000000000000815260040161209990613a04565b60405180910390fd5b505b505050505050565b6120cb8473ffffffffffffffffffffffffffffffffffffffff1661228b565b1561227b578373ffffffffffffffffffffffffffffffffffffffff1663bc197c8187878686866040518663ffffffff1660e01b8152600401612111959493929190613a24565b6020604051808303816000875af192505050801561214d57506040513d601f19601f8201168201806040525081019061214a9190613814565b60015b6121f25761215961384e565b806308c379a0036121b5575061216d613870565b8061217857506121b7565b806040517f08c379a00000000000000000000000000000000000000000000000000000000081526004016121ac9190612538565b60405180910390fd5b505b6040517f08c379a00000000000000000000000000000000000000000000000000000000081526004016121e990613972565b60405180910390fd5b63bc197c8160e01b7bffffffffffffffffffffffffffffffffffffffffffffffffffffffff1916817bffffffffffffffffffffffffffffffffffffffffffffffffffffffff191614612279576040517f08c379a000000000000000000000000000000000000000000000000000000000815260040161227090613a04565b60405180910390fd5b505b505050505050565b505050505050565b6000808273ffffffffffffffffffffffffffffffffffffffff163b119050919050565b6000604051905090565b600080fd5b600080fd5b600073ffffffffffffffffffffffffffffffffffffffff82169050919050565b60006122ed826122c2565b9050919050565b6122fd816122e2565b811461230857600080fd5b50565b60008135905061231a816122f4565b92915050565b6000819050919050565b61233381612320565b811461233e57600080fd5b50565b6000813590506123508161232a565b92915050565b6000806040838503121561236d5761236c6122b8565b5b600061237b8582860161230b565b925050602061238c85828601612341565b9150509250929050565b61239f81612320565b82525050565b60006020820190506123ba6000830184612396565b92915050565b60007fffffffff0000000000000000000000000000000000000000000000000000000082169050919050565b6123f5816123c0565b811461240057600080fd5b50565b600081359050612412816123ec565b92915050565b60006020828403121561242e5761242d6122b8565b5b600061243c84828501612403565b91505092915050565b60008115159050919050565b61245a81612445565b82525050565b60006020820190506124756000830184612451565b92915050565b600060208284031215612491576124906122b8565b5b600061249f84828501612341565b91505092915050565b600081519050919050565b600082825260208201905092915050565b60005b838110156124e25780820151818401526020810190506124c7565b60008484015250505050565b6000601f19601f8301169050919050565b600061250a826124a8565b61251481856124b3565b93506125248185602086016124c4565b61252d816124ee565b840191505092915050565b6000602082019050818103600083015261255281846124ff565b905092915050565b600080600060608486031215612573576125726122b8565b5b60006125818682870161230b565b935050602061259286828701612341565b92505060406125a386828701612341565b9150509250925092565b6125b681612445565b81146125c157600080fd5b50565b6000813590506125d3816125ad565b92915050565b6000806000606084860312156125f2576125f16122b8565b5b600061260086828701612341565b935050602061261186828701612341565b9250506040612622868287016125c4565b9150509250925092565b600080fd5b7f4e487b7100000000000000000000000000000000000000000000000000000000600052604160045260246000fd5b612669826124ee565b810181811067ffffffffffffffff8211171561268857612687612631565b5b80604052505050565b600061269b6122ae565b90506126a78282612660565b919050565b600067ffffffffffffffff8211156126c7576126c6612631565b5b602082029050602081019050919050565b600080fd5b60006126f06126eb846126ac565b612691565b90508083825260208201905060208402830185811115612713576127126126d8565b5b835b8181101561273c57806127288882612341565b845260208401935050602081019050612715565b5050509392505050565b600082601f83011261275b5761275a61262c565b5b813561276b8482602086016126dd565b91505092915050565b600080fd5b600067ffffffffffffffff82111561279457612793612631565b5b61279d826124ee565b9050602081019050919050565b82818337600083830152505050565b60006127cc6127c784612779565b612691565b9050828152602081018484840111156127e8576127e7612774565b5b6127f38482856127aa565b509392505050565b600082601f8301126128105761280f61262c565b5b81356128208482602086016127b9565b91505092915050565b600080600080600060a08688031215612845576128446122b8565b5b60006128538882890161230b565b95505060206128648882890161230b565b945050604086013567ffffffffffffffff811115612885576128846122bd565b5b61289188828901612746565b935050606086013567ffffffffffffffff8111156128b2576128b16122bd565b5b6128be88828901612746565b925050608086013567ffffffffffffffff8111156128df576128de6122bd565b5b6128eb888289016127fb565b9150509295509295909350565b600067ffffffffffffffff82111561291357612912612631565b5b602082029050602081019050919050565b6000612937612932846128f8565b612691565b9050808382526020820190506020840283018581111561295a576129596126d8565b5b835b81811015612983578061296f888261230b565b84526020840193505060208101905061295c565b5050509392505050565b600082601f8301126129a2576129a161262c565b5b81356129b2848260208601612924565b91505092915050565b600080604083850312156129d2576129d16122b8565b5b600083013567ffffffffffffffff8111156129f0576129ef6122bd565b5b6129fc8582860161298d565b925050602083013567ffffffffffffffff811115612a1d57612a1c6122bd565b5b612a2985828601612746565b9150509250929050565b600081519050919050565b600082825260208201905092915050565b6000819050602082019050919050565b612a6881612320565b82525050565b6000612a7a8383612a5f565b60208301905092915050565b6000602082019050919050565b6000612a9e82612a33565b612aa88185612a3e565b9350612ab383612a4f565b8060005b83811015612ae4578151612acb8882612a6e565b9750612ad683612a86565b925050600181019050612ab7565b5085935050505092915050565b60006020820190508181036000830152612b0b8184612a93565b905092915050565b600080600060608486031215612b2c57612b2b6122b8565b5b6000612b3a8682870161230b565b935050602084013567ffffffffffffffff811115612b5b57612b5a6122bd565b5b612b6786828701612746565b925050604084013567ffffffffffffffff811115612b8857612b876122bd565b5b612b9486828701612746565b9150509250925092565b6000819050919050565b612bb181612b9e565b82525050565b6000602082019050612bcc6000830184612ba8565b92915050565b612bdb816122e2565b82525050565b6000602082019050612bf66000830184612bd2565b92915050565b60008060408385031215612c1357612c126122b8565b5b6000612c218582860161230b565b9250506020612c32858286016125c4565b9150509250929050565b60008060408385031215612c5357612c526122b8565b5b6000612c618582860161230b565b9250506020612c728582860161230b565b9150509250929050565b600080600080600060a08688031215612c9857612c976122b8565b5b6000612ca68882890161230b565b9550506020612cb78882890161230b565b9450506040612cc888828901612341565b9350506060612cd988828901612341565b925050608086013567ffffffffffffffff811115612cfa57612cf96122bd565b5b612d06888289016127fb565b9150509295509295909350565b600060208284031215612d2957612d286122b8565b5b6000612d378482850161230b565b91505092915050565b7f455243313135353a2061646472657373207a65726f206973206e6f742061207660008201527f616c6964206f776e657200000000000000000000000000000000000000000000602082015250565b6000612d9c602a836124b3565b9150612da782612d40565b604082019050919050565b60006020820190508181036000830152612dcb81612d8f565b9050919050565b7f4e487b7100000000000000000000000000000000000000000000000000000000600052602260045260246000fd5b60006002820490506001821680612e1957607f821691505b602082108103612e2c57612e2b612dd2565b5b50919050565b7f455243313135353a2063616c6c6572206973206e6f7420746f6b656e206f776e60008201527f6572206f7220617070726f766564000000000000000000000000000000000000602082015250565b6000612e8e602e836124b3565b9150612e9982612e32565b604082019050919050565b60006020820190508181036000830152612ebd81612e81565b9050919050565b7f455243313135353a206163636f756e747320616e6420696473206c656e67746860008201527f206d69736d617463680000000000000000000000000000000000000000000000602082015250565b6000612f206029836124b3565b9150612f2b82612ec4565b604082019050919050565b60006020820190508181036000830152612f4f81612f13565b9050919050565b7f4e487b7100000000000000000000000000000000000000000000000000000000600052603260045260246000fd5b7f4e487b7100000000000000000000000000000000000000000000000000000000600052601160045260246000fd5b6000612fbf82612320565b91507fffffffffffffffffffffffffffffffffffffffffffffffffffffffffffffffff8203612ff157612ff0612f85565b5b600182019050919050565b6000819050919050565b61301761301282612320565b612ffc565b82525050565b600081905092915050565b7f63616c6c00000000000000000000000000000000000000000000000000000000600082015250565b600061305e60048361301d565b915061306982613028565b600482019050919050565b60006130808285613006565b6020820191506130908284613006565b60208201915061309f82613051565b91508190509392505050565b7f7075740000000000000000000000000000000000000000000000000000000000600082015250565b60006130e160038361301d565b91506130ec826130ab565b600382019050919050565b60006131038285613006565b6020820191506131138284613006565b602082019150613122826130d4565b91508190509392505050565b7f4f776e61626c653a206e6577206f776e657220697320746865207a65726f206160008201527f6464726573730000000000000000000000000000000000000000000000000000602082015250565b600061318a6026836124b3565b91506131958261312e565b604082019050919050565b600060208201905081810360008301526131b98161317d565b9050919050565b7f4f776e61626c653a2063616c6c6572206973206e6f7420746865206f776e6572600082015250565b60006131f66020836124b3565b9150613201826131c0565b602082019050919050565b60006020820190508181036000830152613225816131e9565b9050919050565b7f455243313135353a206d696e7420746f20746865207a65726f2061646472657360008201527f7300000000000000000000000000000000000000000000000000000000000000602082015250565b60006132886021836124b3565b91506132938261322c565b604082019050919050565b600060208201905081810360008301526132b78161327b565b9050919050565b60006132c982612320565b91506132d483612320565b92508282019050808211156132ec576132eb612f85565b5b92915050565b60006040820190506133076000830185612396565b6133146020830184612396565b9392505050565b7f455243313135353a2069647320616e6420616d6f756e7473206c656e6774682060008201527f6d69736d61746368000000000000000000000000000000000000000000000000602082015250565b60006133776028836124b3565b91506133828261331b565b604082019050919050565b600060208201905081810360008301526133a68161336a565b9050919050565b7f455243313135353a207472616e7366657220746f20746865207a65726f20616460008201527f6472657373000000000000000000000000000000000000000000000000000000602082015250565b60006134096025836124b3565b9150613414826133ad565b604082019050919050565b60006020820190508181036000830152613438816133fc565b9050919050565b7f455243313135353a20696e73756666696369656e742062616c616e636520666f60008201527f72207472616e7366657200000000000000000000000000000000000000000000602082015250565b600061349b602a836124b3565b91506134a68261343f565b604082019050919050565b600060208201905081810360008301526134ca8161348e565b9050919050565b600060408201905081810360008301526134eb8185612a93565b905081810360208301526134ff8184612a93565b90509392505050565b7f455243313135353a206275726e2066726f6d20746865207a65726f206164647260008201527f6573730000000000000000000000000000000000000000000000000000000000602082015250565b60006135646023836124b3565b915061356f82613508565b604082019050919050565b6000602082019050818103600083015261359381613557565b9050919050565b7f455243313135353a206275726e20616d6f756e7420657863656564732062616c60008201527f616e636500000000000000000000000000000000000000000000000000000000602082015250565b60006135f66024836124b3565b91506136018261359a565b604082019050919050565b60006020820190508181036000830152613625816135e9565b9050919050565b7f455243313135353a2073657474696e6720617070726f76616c2073746174757360008201527f20666f722073656c660000000000000000000000000000000000000000000000602082015250565b60006136886029836124b3565b91506136938261362c565b604082019050919050565b600060208201905081810360008301526136b78161367b565b9050919050565b7f455243313135353a206275726e20616d6f756e74206578636565647320746f7460008201527f616c537570706c79000000000000000000000000000000000000000000000000602082015250565b600061371a6028836124b3565b9150613725826136be565b604082019050919050565b600060208201905081810360008301526137498161370d565b9050919050565b600081519050919050565b600082825260208201905092915050565b600061377782613750565b613781818561375b565b93506137918185602086016124c4565b61379a816124ee565b840191505092915050565b600060a0820190506137ba6000830188612bd2565b6137c76020830187612bd2565b6137d46040830186612396565b6137e16060830185612396565b81810360808301526137f3818461376c565b90509695505050505050565b60008151905061380e816123ec565b92915050565b60006020828403121561382a576138296122b8565b5b6000613838848285016137ff565b91505092915050565b60008160e01c9050919050565b600060033d111561386d5760046000803e61386a600051613841565b90505b90565b600060443d106138fd576138826122ae565b60043d036004823e80513d602482011167ffffffffffffffff821117156138aa5750506138fd565b808201805167ffffffffffffffff8111156138c857505050506138fd565b80602083010160043d0385018111156138e55750505050506138fd565b6138f482602001850186612660565b82955050505050505b90565b7f455243313135353a207472616e7366657220746f206e6f6e2d4552433131353560008201527f526563656976657220696d706c656d656e746572000000000000000000000000602082015250565b600061395c6034836124b3565b915061396782613900565b604082019050919050565b6000602082019050818103600083015261398b8161394f565b9050919050565b7f455243313135353a204552433131353552656365697665722072656a6563746560008201527f6420746f6b656e73000000000000000000000000000000000000000000000000602082015250565b60006139ee6028836124b3565b91506139f982613992565b604082019050919050565b60006020820190508181036000830152613a1d816139e1565b9050919050565b600060a082019050613a396000830188612bd2565b613a466020830187612bd2565b8181036040830152613a588186612a93565b90508181036060830152613a6c8185612a93565b90508181036080830152613a80818461376c565b9050969550505050505056fea2646970667358221220a373abfd705393b77baedda272dbdb41e3bc6c9ad4d3ed9880ec6c4b8893a87e64736f6c63430008110033",
  "linkReferences": {},
  "deployedLinkReferences": {}
}